:100000000004002079000000850000008500000049
:10001000A70B0A010000000001011362004000006C
:10002000041800006B0900003D0C0000D80400001B
:1000300000000000000000000000000000000000C0
:1000400000000000000000000000000000000000B0
:10005000FFFFFFFF054800680549884205D10548B4
:10006000016842685FEA010D1047704704500E4076
:100070000000010000400000FFF7ECFF00F00BF86B
:1000800000F040F803E000005FEA000D70474FF415
:10009000017000F0DDB838B500F020F94FF20F0420
:1000A000564D28B140F2052028806C80012032BDD9
:1000B00053480068400515D56888A04212D12888A9
:1000C00040F2022188421CBF40F20621884215D02E
:1000D00040F2011188421EBFB0F58A7F40F2111133
:1000E00088420BD0474C208A40F6A721884205D190
:1000F0002068FFF7C9FF6068804700BF002032BD5D
:100100000000000070B582B004003F4872B600687D
:10011000050E684600F016F98F2D10DA3B483C4D6D
:10012000016841F0040202604FF0501300223026B3
:100130005643521CAB51062AF9D3016001E0902DC1
:1001400006DA34480168C909C90141F0200101609B
:100150009DF80100012804D12F48016841F00401F5
:10016000016000202D49086000F031F92448006842
:10017000800A10F001050CBF29482A4802E0CD2171
:1001800000F8011B28498842F9D328482849294A00
:1001900003E010F8013B01F8013B9142F9D32648F6
:1001A0002649002201E000F8012B8842FBD300F031
:1001B0003BF9124A50884FF20F03984240F2052152
:1001C0000AD113888B4205D035B1180A012818BF0F
:1001D000022801D1194601E004B900210648018036
:1001E0004CF23C30508000F030F900F05DF94FF4F3
:1001F000017000F02DF873BD340C002000000020C9
:1002000004500E4000400000FC81E00FB0400E4062
:1002100000A000402C400E4064310E40B40AC6439A
:10022000000000209C00002000040020D8180000DE
:10023000000400201404002014040020390C0020C5
:10024000890001EB401000F184400260704700001B
:1002500010B504461A484AF6E8510160C162016BC4
:1002600001F00F01022913D1164A01211160806BA0
:1002700000F00300012818BF022809D100221C2128
:100280001148FFF7DDFF002200211048FFF7D8FFDB
:10029000200A00280E4808BF24024FF20F010480F4
:1002A0004180BFF35F8FBFF34F8F0A480A4A01684E
:1002B00001F4E06111430160BFF34F8F00BFFDE720
:1002C00008300E404040084060300E4074300E4010
:1002D000000000200CED00E00400FA05002070474B
:1002E00080B500F0FDF8BDE8014000F00FB9000056
:1002F000052800D9704710B5DFE800F01721030F7B
:100300001C170F4C2088411E2180C0B9012000F02D
:1003100031F942F21070208010BD012000F013F975
:10032000BDE81040002000F025B9BDE810400020D5
:1003300000F003B9BDE81040002000F004B910BD82
:10034000360C00200B494A680B68920002F03C0210
:10035000C3F381131A4382700A6802F03F024270AD
:100360008A68C96802F0F002C1F3031111430170F9
:1003700070470000E0FF0FE080B500F00AF8244964
:10038000244A0968C1F30821491CB0FBF1F0106050
:1003900002BD214921480A6802F00702022A09D059
:1003A0000AD3042A01D002D306E0406805E04FF4E6
:1003B000004002E0006800E08068C96EC1F30421DB
:1003C000491CB0FBF1F070471448006870471448AE
:1003D000016841F4700101601248416941F4005123
:1003E00041610168890889000160416B4908490041
:1003F0004163016A21F08051016270474FF400406F
:1004000070474FF47A7070470448406870470000A6
:1004100008410E401004002094400E4004040020C7
:1004200088ED00E040300E40602080F31188704776
:1004300010B5084B1C6890FAA0F2B2FA82F224EAD6
:10044000000091400843186010BD03490120086076
:100450007047000000500E4008500E400078704772
:1004600030B5DBB00446214636A800F0A9F80020DC
:1004700000904FF402630B4A36A901A800F075FA08
:100480000FF248020FF2500001A900F0D7FB054619
:1004900000F033F828001CBF214600F00AF9284676
:1004A0005BB030BD1404002080B5FFF719FF00F0E9
:1004B000E3FB00F0ADFC40F20120FFF7C9FE002095
:1004C00002BD012A08BF00F018BC70470F180000D9
:1004D000871800005D04000075080000AF080000E8
:1004E00080B50121064800F0E1FD04210720FFF757
:1004F0009FFF04490448086001BD024800F002BFA4
:1005000000050800002005400108030080B5012116
:10051000214800F0CBFD0121204800F0C7FD002359
:1005200004220421052000F00DFFBDE80050002347
:1005300004220521052000F005BF10B500F00DF8DC
:1005400002F1C06204E010B500F007F802F1806229
:10055000012303FA00F0106010BD0FF24801104AA9
:1005600011F830303024634301EBC0001A440C32E0
:100570004068704710B50FF22C01094A11F830306D
:10058000302401EBC00063431A444068012303FA9E
:1005900000F0906110BD00004041050000250800FA
:1005A00000A000400500000004000000050000005D
:1005B00005000000002914BF01210221416070479D
:1005C00030B589B00170012201290CBF8021402182
:1005D000818042700021C1800181827001212E48FA
:1005E00000F064FD01212D4800F060FD0FF2D020E5
:1005F0000FC804AC6D4684E80F0000208DF8100091
:1006000004A9274C204600F0E5FE0FF2C4200FC8D5
:1006100085E80F0002208DF8030000208DF800000F
:1006200001208DF80C0069461E4D284600F0D2FED0
:100630004FF6FF70E061E86109B030BD2DE9F0418F
:1006400004460D46164F9046012100F030F8002078
:10065000154E78623060FFF750FF012C0FD135B98D
:1006600000F09AFB00F0010080F0010002E0284653
:1006700000F099FB28B900F019F800200AE00120E9
:1006800008E030684045E6D35FEA0800E3D000F0B8
:100690000DF81620BDE8F0810002040000120400ED
:1006A000008001400084014024840140002138463C
:1006B00080E738B504460D4600F009F800F007F869
:1006C0002A462146BDE838401820FFF7FABE2A46E0
:1006D00021461820FFF7F5BE70B5044682B0002011
:1006E000208148F6581220786946FFF7A7FF08B125
:1006F0001C2076BD9DF80000032818BF182801D1E2
:10070000182076BD042801D1172076BD012801D01C
:10071000212076BD002500E06D1CA188EDB2091DE9
:100720008D420BDA601900F10A01207840F24A226A
:10073000FFF784FF0028EFD0262076BD002500209B
:1007400006E00146EDB260196D1C007B00F08EFEE4
:10075000A288E9B29142F4D3A37AE17AC918FF29B9
:1007600001D0222076BDA5182E7BB6EB102F01D02C
:10077000232076BD697BC0B2814201D0242076BDA2
:10078000A078834207D0401EC0B2834201D1272007
:1007900076BD252076BD901C20810220E0800020BF
:1007A00076BD38B504466078012804D040D30328CC
:1007B0003CD033D33CE02078012816D13B25684655
:1007C00000F0F1FA0028FAD0432000F096FA2078E1
:1007D00040F24A220021FFF731FF30B12846451E82
:1007E000C0B20028F0D11B2032BD0220607020462C
:1007F000FFF772FF050018BF00F0F2FA272D19D19C
:10080000A0782278411EC9B20620FFF75AFE002DBB
:10081000EDD10320FFF76CFD002032BD00F0E0FABF
:1008200000F023F8A078401CA070E0E7172032BD4C
:10083000182032BDA80603D52278A1781520E4E758
:10084000680603D4182D18BF1C2D07D1217828461F
:10085000FFF72FFF04206070284632BD172DD6D138
:1008600000F003F803206070E0E72278A17806200A
:10087000FFF727BEF8B504460D461646002707E0E9
:10088000E088411C2044E180BFB2807AE8557F1C9B
:10089000B8B2B04209D2E08821898842F0D320461C
:1008A000FFF77FFF0100EBD0F2BD0020F2BD10B5D5
:1008B00004462046FFF775FF0100FAD010BD000086
:1008C0000100000000000000000000000000000027
:1008D0000100000000000000000000000000000017
:1008E000418AB1F5847F09DDCF49096890F8680035
:1008F0000902B0EB116F01D0002070470120704752
:10090000F8B504460D4616461F4607E03046A04798
:10091000294600F0BEFD05467F1E761CB8B20028B1
:10092000F4D12846F2BD38B50C46154605E001461F
:1009300014F8010B00F0ADFD6D1EA9B20029F6D12F
:1009400032BDF8B504460D4616461F462868236892
:100950003A4631469847040005D1E8683A463146A0
:10096000FFF7E1FFE8602046F2BD10B5029C8472FB
:100970000381426001604FF0FF31C16000210174CA
:1009800010BD2DE9F84F8B4604469BF81B70D068CC
:10099000A649802FA8BF802788421E4651D1002E2D
:1009A0004DD0B06800904FF0FF384FF000090BEBCE
:1009B000490000F1480A9AF800500BE0FFF79DFD4E
:1009C00000984FF40063EA024146FFF799FF6D1C5F
:1009D0008046ADB29AF80100A84205DA09F1010992
:1009E000B9F1060F02DAE2E7FF2DE7D1DBF84400A8
:1009F0006FEA0801884224D1A068736800BA7A08B7
:100A000059469847C8B9E06805BAA06802BAB06804
:100A10003B464FF0FF31FFF773FFC04385420CD1D7
:100A200040F6A720ABF810000122A068736800BA56
:100A30000BF110011030984708B1422002E0172056
:100A400000E04320BDE8F28F2DE9F04F894609F11F
:100A5000040583B08046D5F800A0A888ADF804004E
:100A60001646042352464046FFF76BFF01007DD136
:100A7000BAF8000040BA80B20090BAF8020044BA56
:100A8000A4B2E00706D500984FF20861884218BF6B
:100A900046206BD1B4F5026FC8BF4E2066DC002C37
:100AA00063D00098DFF888B109F13C0748B14FF6F0
:100AB0000441401A00F09D80FF3859D0FE3857D0CD
:100AC000AFE0287B08B1512050E08D2C28BF4F208B
:100AD0004CD2234609F1180200F0ADF8010045D1CF
:100AE000FA78802AA8BF802202F10C00844201BF5C
:100AF000A88A40BA00F47F40B0F5007F31D1E88A7F
:100B000040BA4EF25031884202BF288E40F6A721EB
:100B1000884226D1688E00F47F40B0F5807F01BF07
:100B2000A86900BADBF81C1088421AD14FF6FF7092
:100B3000288609F124014FF0FF30FFF7F4FEE96940
:100B400009BAC943884204BF3878042809D17878A3
:100B5000182818BF062804D109F12400FFF7C0FEA9
:100B600008B9452002E0012028730020BDE8FE8F6F
:100B7000287B00283FD0042300F05CF80100F5D169
:100B8000DAF8000005BADBF81C00241F8542A4B285
:100B900038BF4820EAD3F96B6019884228BF492042
:100BA000E4D200984FF6035188420AD14EB1326820
:100BB00029460220904720B14A20D7E7E41BA4B27F
:100BC000ED19002CD1D0BDF804008442B4BF2746F3
:100BD00007463B4600F02EF80100C7D1002EEDD0AD
:100BE00073687A085146284698470028E6D04B207B
:100BF000BCE7287B08B94120B8E7042C18BF4C207B
:100C0000B4D12A68042300F016F80100AED13346AF
:100C10004A4609F1240109F1140003B0BDE8F04F80
:100C2000AFE64420A2E70000FC81E00FE320BBDE3A
:100C30000000000052464946404682E670B50D4627
:100C4000044628898028164603DA4F2070BDA87A0A
:100C500078B9324629462046FFF7F6FE0028F6D03E
:100C6000172807D1286861688847172802D1002013
:100C700070BD502070BD000030B5524C2078002867
:100C800087B038D101215048504D00F00FFA0123B0
:100C900004220021002000F055FB00230122012145
:100CA000002000F04FFB0FF24811684691EC060B54
:100CB00080EC060B0121464800F0F8F90121454877
:100CC00000F0F4F900208DF800006946284600F095
:100CD00024FC032068674049A86F0840A8670521E5
:100CE000284600F013FC012304220521002000F017
:100CF00029FB0120207007B030BD0146334800F0C9
:100D000076BC10B5044603E014F8010BFFF7F5FFBD
:100D100020780028F8D110BD1CB50FF2EC02052197
:100D2000D2E90034CDE9003404220EE080B20A2377
:100D300090FBF3F30A2404FB1304E4B2184604F115
:100D400030030DF8013004B10A46491E49B20029AA
:100D5000ECD5D2B20DEB0200FFF7D3FF13BD10B5F7
:100D6000044600090A28ACBF37303030C0B2FFF764
:100D7000C4FF04F00F000A28BDE81040ACBF3730B4
:100D80003030C0B2B9E710B50446000AFFF7E7FFFC
:100D9000E0B2BDE81040E2E71048006810F08000C3
:100DA00018BF0120704710B50446FFF7F5FF28B1C2
:100DB000064800F015FC2070002010BD012010BD79
:100DC00000000000380C0020002508000000014051
:100DD0004041050000220400E0E0FFFF1000014058
:100DE00080B56846FFF7DFFF0028FAD001BD00009C
:100DF000050000000000000000C201000005000026
:100E000000100000000000003030303030000000E2
:100E10002DE9F84FFFF771FBFFF7E2FF0020FFF726
:100E200067FA474C0FF2641B464E0FF234180FF26C
:100E3000181A41A70FF204191BE05046FFF761FF93
:100E40000C252088E84000F00F00FFF765FF012D1A
:100E5000A4BF2E20FFF751FF2D1FF2D54846FFF704
:100E600050FF608EFFF758FF4046FFF74AFFFFF73D
:100E7000B7FFFFF742FB0220FFF73AFA6846FFF799
:100E800092FF0028F5D19DF80000FFF736FF9DF88E
:100E900000000A2818BF0D28CFD0312804D03228EE
:100EA0002ED0332831D0E2E70FF2F000FFF729FF10
:100EB0000120FFF7D5FA05460FF2F400FFF721FFF6
:100EC0002DB90520FFF714FA0FF2F800CDE7042042
:100ED000FFF70EFA0FF2F800FFF713FFA80648BF5E
:100EE0000FF2F80005D468064CBF0FF208100FF29D
:100EF0001410FFF706FF2846FFF745FF3846B4E712
:100F00000120FFF7F5F9BDE8F18F3846FFF7F9FE4C
:100F1000308A002540F6A721884218BF5846A4D140
:100F200070196D1C90F824000100E7D0FFF7E5FE72
:100F3000EDB2102DF4DBE1E70D0A000020620000A5
:100F40001A000000004000000D0A454652333220CE
:100F500053657269616C2042746C20760000000059
:100F60000D0A312E2075706C6F61642065626C0D06
:100F70000A322E2072756E0D0A332E2065626C20A7
:100F8000696E666F0D0A424C203E20002A2A206EB0
:100F90006F20617070202A2A0D0A00000D0A626518
:100FA00067696E2075706C6F61640D0A0000000047
:100FB0000D0A53657269616C2075706C6F616420F5
:100FC00000000000636F6D706C6574650D0A0000B1
:100FD00061626F727465640D0A0000000D0A584D5D
:100FE0006F64656D20626C6F636B206572726F72E7
:100FF000203078000D0A66696C65206572726F7228
:10100000203078000D0A6572726F7220307800000F
:10101000890001EB401000F184400260704700003D
:1010200038B50446002500F0FBF8DFF8A822DFF809
:10103000A012944208D0DFF8A022944206D0DFF834
:101040009C22944204D006E0086802E0486800E070
:10105000886800F00700401E03281BD8DFE800F076
:1010600002050C08FFF7CAF904E0FFF7CDF901E02B
:10107000FFF7C7F905460DE0FFF77EF9DFF86012CC
:101080000968090E01F001010122491C02FA01F16F
:10109000B0FBF1F5284632BDDFF848124A68D207A6
:1010A00002D40A680242FCD17047000070B50212F7
:1010B0000C4602F00F020021521E092ADFF82C52C2
:1010C00014D8DFE802F005141313071619131C20B7
:1010D000DFF8F851C0F3043611B10846FFF7DCFF22
:1010E000224631462846BDE8704091E770BD103574
:1010F000F0E730350121EDE738351021EAE74035DA
:101100004FF48031E6E7DFF8E851E3E770B5DFF848
:10111000D811DFF8C0210E68DFF8BC11DFF8C0413C
:10112000012510F478105DD0B0F5003F2AD0B0F55D
:10113000802F21D0B0F5002F54D0B0F5202F27D02C
:10114000B0F5402F46D0B0F5602F66D0B0F5901FB7
:101150003BD0B0F5A01F24D0B0F5B01F2AD0B0F519
:10116000D01F1CD0B0F5E01F22D0B0F5001F2CD04E
:10117000B0F5381F39D04FE0FFF70BF9E168C1F344
:1011800008210AE0FFF705F9A168C1F3082104E08E
:10119000FFF7FFF86169C1F30421491C12E0104612
:1011A00015E01046FFF73CFF216A01F00F0107E050
:1011B00008460CE00846FFF733FFA16A01F003017F
:1011C00005FA01F1B0FBF1F627E0DFF81001FFF7B7
:1011D00027FF1FE0DFF81C0100F022F807281CD0D1
:1011E000092819D1FFF7D5F814E0DFF80C0100F059
:1011F00017F804280CD007280FD008280CD1FFF7C7
:10120000C8F82168C1F30421491C01FB00F604E081
:10121000FFF7DAF8064600E00026304670BD000011
:10122000014601F00F010120491E0729DFF8CC20FB
:1012300049D8DFE801F0040F1348202E4836506AE1
:1012400000F0070002283AD002D3042804D01CD3AF
:101250000520704711690FE002207047516901F0C5
:101260000701491E03292FD8DFE801F00F020311FF
:10127000F2E706207047916901F00701012904D0C7
:101280000229E9D0042902D07047032070470A20C0
:101290007047116811F001010FD0012914D1092004
:1012A0007047DFF85C10096801F03001102904D0A4
:1012B000202904D0302904D070470720704704202B
:1012C00070470820704700207047000000400E4023
:1012D00080400E4002001A0003001C0005002000A0
:1012E00000410E4040410E4000040020B0400E403E
:1012F00050410E4006000C0098002E0070400E4039
:101300005C410E400168C90707D58168890704D48C
:101310008168C907FCD40121416070473023254A08
:10132000584310440C3000F1806006E03023214A1D
:10133000584310440C3000F1C060012202FA01F160
:1013400001607047F8B50446164630000D461F464A
:1013500007D0002F204602D0FFF7E8FF01E0FFF79B
:10136000DDFF30210F22134811FB04F1082D084442
:1013700005D2AB00416800F015F8416006E0A5F128
:1013800008039B00816800F00DF881604EB9002FC2
:101390002946204602D0BDE8F440C7E7BDE8F44046
:1013A000BCE7F1BD9A4021EA020206FA03F11143BB
:1013B0007047000000A00040044988421CBF044957
:1013C000884201D101207047002070470080014011
:1013D000008401402DE9F84304460D46FFF7ECFF79
:1013E0002878010004BF02216160002161626978F0
:1013F00001B140216A7A02B18022AB7A03B1202385
:10140000EE7A06B1102695F8049095F805C095F887
:101410000CE0EF7895F80280B9F1000F18BF4FF497
:101420000059BCF1000F18BF4FF0805CBEF1000FF7
:1014300018BF4FF0080E3F0447EA0868AF7948EA42
:101440008728EF792D7A48EA07273D43294311433E
:101450001943314349EA01014CEA01014EEA010115
:10146000216008B101206060BDE8F1830A460902ED
:1014700041EA12214840C0F30311484080EA00309D
:1014800041010206C9B2D20E41EA0221484080B2AF
:1014900070470A0A484000F0FF0008214308C007CF
:1014A00046BF034858401846491EF7D15040704780
:1014B0002083B8ED70B50446080015461E4604BFEB
:1014C0004048FFF723FE310006D0202E18D0402ED2
:1014D00018D0602E18D070BD1021226822F0600252
:1014E000226069432268324322604A0802EB4010BE
:1014F000B0FBF1F02038344901EAC000606170BDF2
:101500000821EAE70621E8E70421E6E7CA4352009A
:1015100002F00A02C260C160704738B504460D4649
:1015200000F02EF8A87C18B1206840F080402060C0
:10153000E87C18B1287D40F08000A065687BB5F993
:1015400010100843B5F90E10084360602B7BAA68A1
:1015500069682046FFF7AEFFFFE7A87DE97D000739
:10156000090500F0E04001F4E00108432066687DD1
:1015700018B1206840F4803020602878E06031BDE8
:1015800040F6AA61C1600021016041F2050141609D
:10159000002181604161C1640C498164002141677F
:1015A0008167C1670A49884202D10A4A0021116055
:1015B000002181650849884202D10849002008605D
:1015C0007047000040410500F8FF7F00F9FF01006F
:1015D0000000014050000140000401405C04014053
:1015E00001690906FCD5FFE7C069C0B2704702690E
:1015F0005206FCD541637047794841F671318163E9
:101600000168490849000160704775480168490848
:10161000490001600021816370477249724A01E00C
:1016200021B1491E1369DB07FAD401B9BAE0506051
:1016300001201060106910F0060F05D0410700D599
:10164000B3E0800700D5B3E000207047F0B5134643
:101650000022002936D0634C634D8BB98B4231D2C6
:1016600050F8046BEE605B1C08262E60264601E0F5
:1016700036B3761E2F69FF07FAD4002EEED11FE095
:10168000EFF3108672B600230EE02F6907F01907FA
:10169000102F08BF2F602F693F07F6D550F8047B45
:1016A000EF605B1C10272F608B42F4D306B962B643
:1016B000264601E026B1761E2869C007FAD40EB985
:1016C0006FF002021046F0BD2DE9F84F444F0D4671
:1016D00039680446002041F001019B4639604FEA19
:1016E00092088146AA4602E0B1440AEB860AC14547
:1016F00017D204EB89063046FFF78FFF010022D195
:10170000C6F30A00C0F500608608A8EB0900B042E5
:1017100038BF06465A4631465046FFF797FF01004C
:10172000E2D021682A68914209D02046FFF775FF70
:10173000010004D15A4601212846FFF787FF396886
:10174000490849003960BDE8F28F2549254A0B68F0
:1017500043F001030B60886001204860486940073E
:1017600004D508684008400008601EE0486980070A
:1017700004D5086840084000086019E0022048606D
:1017800001E022B1521E4869C007FAD422B90868A4
:1017900040084000086005E0086840084000086014
:1017A000002070476FF0020070474FF0FF30704725
:1017B0006FF001007047002386E70948016841F097
:1017C0000101016046F21A31C1644FF48071416039
:1017D0004169C907FCD40021C164002070470000A2
:1017E00008000E40809698000C000E404EF688517E
:1017F000CEF20001086840F470000860BFF34F8F1C
:10180000BFF36F8F4FF00070E1EE100A704738B5EC
:1018100004460D46FFF7F0FE012C02D1FFF7CDFF85
:1018200002E02846FFF791FF18B1FFF7EEFE012016
:1018300032BDFFF7EAFE002032BD10B5C20782B00C
:101840001BD402884FF6FF739A4201D00A0014D1CC
:101850008408A400800722684EBFC2EA0140100C31
:1018600041EA00400090FFF7C7FE04226946204687
:10187000FFF7A1FF18B1FFF7C8FE012016BDFFF763
:10188000C4FE002016BD70B504460D46164604E0A1
:10189000FFF7BBFE241D2D1DB61EB6B1012E01D0D3
:1018A000A00706D535F8021B2046FFF7C6FFA41C8B
:1018B000761E022EF1D3FFF79FFE04222946204612
:1018C000FFF779FF0028E3D001E0002070BDFFF7AB
:1018D0009CFE012070BD0000C0EA210100F0490219
:1018E00000800000C0EA2101C0EA2101FFFFFFFFE4
:1018F000FFFFFFFFFFFFFFFFFFFFFFFFFFFFFFFFF8
:10190000FFFFFFFFFFFFFFFFFFFFFFFFFFFFFFFFE7
:10191000FFFFFFFFFFFFFFFFFFFFFFFFFFFFFFFFD7
:10192000FFFFFFFFFFFFFFFFFFFFFFFFFFFFFFFFC7
:00000001FF
