S01D0000626F6F746C6F616465722D756172742D786D6F64656D2E7333370C
S1130800001000205909000009090000C51000006B
S1130810090900000909000009090000090900008C
S11308200909000009090000403800000909000016
S113083009090000883800000909000009090000BE
S1130840090900000909000009090000090900005C
S1130850090900000909000009090000090900004C
S1130860090900000909000009090000090900003C
S1130870090900000909000009090000090900002C
S1130880090900000909000009090000090900001C
S1130890090900000909000009090000090900000C
S11308A009090000090900000909000009090000FC
S11308B009090000090900000909000009090000EC
S11308C0090900000909000010B5054C237833B963
S11308D0044B13B10448AFF300800123237010BD0F
S11308E06010002000000000D839000008B5034B58
S11308F01BB103490348AFF3008008BD00000000AA
S113090064100020D8390000FEE70000064B0748B9
S1130910DA1C121AC11E22F00302994288BF002277
S1130920034902F0F7BE00BF601000200010002051
S1130930E4390000064B0748DA1C121AC11E22F0E3
S11309400302994288BF0022002102F0F1BE00BFD9
S1130950341300206010002008B500F009F800F0FE
S113096025FCFFF7D3FFFFF7E5FF00F0AFFB000026
S11309700D4B0E4A9A60D3F8882042F47002C3F8F3
S113098088200B4B5A6D42F400525A651A6C22F0BF
S113099003021A645A6F22F001025A671A6E22F097
S11309A080521A66704700BF00ED00E000080000A6
S11309B000300E40024A00231370024A137070473D
S11309C07C1000207D10002038B50378042B0546E8
S11309D00C4650D008D8012B0AD0032B50D0182332
S11309E0237040F603100DE0182B49D0432BF5E794
S11309F0264B42781978D9B9012A04D015232370DB
S1130A0040F6041038BD1A70AB781A44FF2AF5D1A9
S1130A1000228021E81C01F0ACFC95F88320C0F38F
S1130A200F239A4216D01523237040F60210E9E7EB
S1130A30174B1B78934204D10623237040F606100B
S1130A40E0E70133DBB29342DED01523237040F696
S1130A500510D7E795F88430C0B2834204D015233B
S1130A60237040F60110CDE7094B6A781A7006230B
S1130A7023700020C6E706230B7040F60710C1E779
S1130A801823237040F60810BCE700BF7D10002037
S1130A907C10002000F01AB800F01AB8014902488E
S1130AA000F04CB85837000080100020704710B593
S1130AB0044600F031FE182C07D1204600F02CFE2D
S1130AC02046BDE8104000F027BE10BD00F050BD28
S1130AD010B592B018494722684602F01BFE00F098
S1130AE0E5FAC0F30363092B8CBF373330330A2292
S1130AF08DF81430C0F30343B3FBF2F102FB11335E
S1130B00303300F00F008DF81730B0FBF2F302FB26
S1130B10130001F13004303003F130018DF8191065
S1130B208DF81A000122472168468DF8164000F01E
S1130B30BBFD002012B010BD683700002DE9F04F56
S1130B400024F7B090220646884652A821468DF824
S1130B500B4002F0EDFD2146482204A802F0E8FD16
S1130B602146682216A802F0E3FD00F097FCDFF8A6
S1130B700C93DFF80CA3DFF80CB33C2701254FF0EE
S1130B80FF34062DFDD8DFE815F009000D001E0026
S1130B9041005B005101BD000425F2E7FFF798FF17
S1130BA00125EEE74FF47A7103A800F03FFE40B947
S1130BB09DF80C30313BDBB2022B9ABFAB4AD55CBB
S1130BC005463C27DDE701221121A94800F06CFD10
S1130BD028220021304602F0ABFD202316AA04A9E6
S1130BE052A800F0FAFF0025FF23737001210520AD
S1130BF0758000F07FFC00F0A3FD18B101212846A8
S1130C0000F01EFEFFF7D6FE0325BAE74320FFF7E8
S1130C104EFF00214FF47A7000F06CFC00F090FD60
S1130C2018B900F08BFC0028F8D000F089FD0028EA
S1130C30B2D1013FA5D11820FFF739FF0025A0E765
S1130C40002185220DF1C10002F072FD002140F661
S1130C50B83000F04FFC00F073FD78B34FF47A73B2
S1130C6000930123194603AA0DF1C10000F08CFD85
S1130C709DF8C130012B0DD140F6B8320092842189
S1130C8003AA0DF1C20000F07FFD039B842B0446F0
S1130C9018D1C8B90DF10B010DF1C100FFF794FE95
S1130CA040F607139842044614D1B3780BB1F37895
S1130CB013B918238DF80B3006251DE000F03EFC17
S1130CC00028C8D040F2047415208DF80B00FFF7FB
S1130CD0EEFE56E780B99DF8C130012B0CD1CDF85A
S1130CE00080802331AA314652A800F0A1FF0446B7
S1130CF010B118238DF80B309DF80B00182808BF8D
S1130D000625E4E70121002000F09AFD01210A20D4
S1130D1000F0F0FB9DF80B30062B4FF0010208D1D8
S1130D2040F607139C4204D152481B2100F0BCFC3E
S1130D3084E71A21504600F0B7FCA4F51063B3F51C
S1130D40E06F4FF0010222D24B48112100F0ACFCBD
S1130D5040F606139C4222DD9DF80B309F2B4FEA90
S1130D6013108CBF3730303000F0D6FC9DF80B00E8
S1130D7000F00F0009288CBF3730303000F0CCFC75
S1130D800D2000F0C9FC0A2000F0C6FC56E7102133
S1130D90584600F089FC40F606139C420BDCB4F57F
S1130DA0106FD9DDA4F60213042B2BD8DFE803F06F
S1130DB02C24282E3000A4F58053013B092BCBD8DA
S1130DC0A4F58053013B092BC6D801A252F823F0A5
S1130DD0250E0000590D0000590D0000290E0000D9
S1130DE0190E0000210E0000250E00001D0E00004B
S1130DF0150E0000250E000021238DF80B30ABE703
S1130E002223FAE72323F8E72423F6E72523F4E74C
S1130E102723F2E74123F0E74323EEE74423ECE7FB
S1130E204523EAE74F23E8E75023E6E7B378BBB16D
S1130E30F378ABB133789B070DD5756800F036F9BC
S1130E40854204D9716A4FF4004000F01FF9012271
S1130E50132148466AE740F2012000F089FAF6E7D8
S1130E6040F2032000F084FAE8E600BFAF37000048
S1130E700A380000EF3700001B380000B2370000CA
S1130E80D5370000C5370000C0F30A032DE9F0414F
S1130E9005460F4616460BB900F0B5FA05F5006491
S1130EA024F4FF6424F0070405EB0608A04507D8E2
S1130EB03246394628460223BDE8F04100F0AABA7A
S1130EC0204600F0A0FA04F50064EFE770B40025B2
S1130ED00346D5F828582E69864206D86C6913440F
S1130EE09C4202D370BCFFF7CFBF70BC70470000B8
S1130EF01FB5002314469B6A1A68134B9A4221D1EA
S1130F0000F5004310F5004F03931BD2039BB3F588
S1130F10802F17D2039BC3F58023A34212D350B969
S1130F20D0F828385A69B2F5004F04D918690191EC
S1130F3000F069FA01990398224604B0BDE8104014
S1130F40FFF7A2BF04B010BDAD1007B0F0B5421E4C
S1130F50D11C85B0034619D80D4C6E4604F1100718
S1130F6020686168354603C50834BC422E46F7D173
S1130F700DF10F010F3311F8010912F8014F8442EA
S1130F8004D19A42F7D1012005B0F0BD0020FBE75F
S1130F902C380000036913F0FE0F0CBF0120002061
S1130FA070470000F0B5036803F16043B3F5F84FF0
S1130FB00446A1B04FF000002AD8D0F8282863686E
S1130FC016699E4224D8B3F5802F21D8656B06F1AB
S1130FD04003AB4255D8B5F5802F52D82846FFF7C9
S1130FE0B5FF00284DD02846FFF7D4FF80B16F69C4
S1130FF077B1022F0ED1AB69C4F1040119444FF04B
S1131000FF32204601F0C2F91F4BC31A584258411F
S113101021B0F0BD40F2046328460593FFF796FF24
S11310200028F5D02846FFF7B5FF0028F0D0012F9F
S113103025D1AD69AE4222D8AC4220D8B5F5802F77
S11310401DD806A801F02EFA2A1B214606A801F095
S113105033FA06A801F032FA01F034FA039001F0F1
S113106035FA039B009005F12002294606A801F0F9
S1131070D9F905900598B0FA80F04009C8E7002036
S1131080C6E70120C4E700BFE320BBDE08B54FF08C
S1131090FF3201F07BF9044B984203D140F209205E
S11310A000F066F9002008BDE320BBDE0023D3F87E
S11310B02838986870474FF4004070470020704704
S11310C0002070474FF4017000F052B9314B13B552
S11310D001225A64304BD3F8FC4001A8240E02F0DC
S11310E09BF98E2C1CD82D49D1F8B00040F0040394
S11310F0C1F8B0302A4B4FF050121A601A631A66C6
S1131100C3F89020C3F8C020C3F8F020C1F8B000A1
S1131110224AD36A23F07F0343F02003D36201E021
S11311208F2CF5D09DF80530012B01BF1D4AD2F854
S1131130643143F00403C2F864311B4B0022C3F84A
S1131140B42AFFF7BBFF00F0F6F8FFF7A3FCFFF7A4
S1131150A3FC18B14FF4017000F00AF9FFF79EFCEC
S11311600446FFF7A3FC1CB140F203739C4203D175
S113117040F2012000F0FCF8A4F20574012C94BFA5
S113118040F203204FF4017000F0F2F8002002B0A6
S113119010BD00BF00000E400081E00F00400E4073
S11311A000A0004000300E400000C64313B5264B9B
S11311B001248DF806408DF807405B685B050BD56C
S11311C000F0F4F8A0F2022080B2072804D804FA50
S11311D000F010F0C90F02D100F096FB20B10023FB
S11311E08DF806308DF807304FF480435B68013387
S11311F008D14FF4027000F0B0F800238DF80630E7
S11312008DF807309DF8073063B14FF48040FFF745
S1131210C9FE8DF806009DF806301BB94FF4027024
S113122000F09BF89DF8063063B1084A4FF4804300
S113123093601846016881F3088881F3098840683F
S11312408746FEE702B010BD00500E4000ED00E0FE
S1131250B1F5BC7F10B504460FD34FF4BC72002126
S113126002F066FA04F5807204F1B80104F1280072
S11312700023BDE8104000F0B0BC40F2052010BDD2
S113128013B5044600910146283000F0D1FCC4F89F
S1131290740118B141F20703984209D1A3784BB104
S11312A0E27840F2032040F20223002A08BF1846E5
S11312B002B010BD40F20120FAE72DE9F04387B0F7
S11312C00DF108090446DDF838800E461746002162
S11312D0102248461D4602F02BFA0021C8F80010DF
S11312E01C22284602F024FA32463B46CDF80090F0
S11312F0214604F1280000F09BFC23789A0744BFA0
S11313006268C8F80020DB0709D504F1080304F17A
S1131310240253F8041B45F8041B9342F9D12378A3
S1131320002B40F2064018BF002007B0BDE8F08350
S11313304FF4BC7070474FF000534CF23C325A806B
S113134070474FF000534AF6C0305B8823F00F0318
S11313509BB21B1A5842584170474FF0005208B5CF
S11313601080FFF7EEFF10B94FF20F03538008BD52
S113137008B5FFF7F2FF0A4A136823F4E06343F465
S113138000731360BFF34F8F0649074BCA6802F41A
S1131390E0621343CB60BFF34F8F00BFFDE700BF94
S11313A000500E4000ED00E00400FA054FF0005339
S11313B04FF20F015A888A4201D1188870473AB90E
S11313C01B88012B40F2022018BF4FF400707047B5
S11313D04FF40070704713B504460B461046A2073D
S11313E053BF6FEA03434FF6FF7242EA03436FEAC7
S11313F013430193042324F003010DEB030201F0D2
S113140095FF02B010BD08B501F048FFB0FA80F0B6
S1131410400908BD072B2DE9F04105460E46144648
S11314201F4602D90020BDE8F08101214FF48A4013
S113143001F0DAFD0CB90120F5E744EA0503DA0707
S1131440F0D4AB0726D531883A462846FFF7C3FFC8
S11314500028E7D1023C032C05F1020506F102063F
S11314600DD924F00308434632462946384601F094
S11314705DFF0028D6D146444544A4EB0804002C63
S1131480D9D031883A462846FFF7A5FFB0FA80F054
S11314904009C8E7032CE4D8F3E700001FB5124B5A
S11314A01A6842F480121A60D3F8C02042F0010294
S11314B0C3F8C02000F0E4F94FF47A23B0FBF3F052
S11314C00A4B0D2218600021684602F031F901230D
S11314D08DF8003006480A2369468DF8023001F081
S11314E0B9FF05B05DF804FB00400E40AC100020CD
S11314F00080014030B50D4D0D4A2D68536A15FB2F
S113150000F09CB210FA83F00A4B80B21880A0421B
S1131510094B2CBF002401241C7011B1536A83426F
S1131520FCD101235361936130BD00BFAC10002096
S113153000800140A8100020AA100020094B0A4A8C
S1131540D868127800F001000AB108B9704738B9B8
S1131550586A064B1B88984234BF0020012070470C
S11315600120704700800140AA100020A81000202C
S113157070B5394E394A3368394D3A4803F134016C
S113158091601C3301216B606B6201F02DFD3648C4
S1131590012101F029FD01214FF48A4001F024FDCD
S11315A07068012101F020FD3368304940F6AA62D9
S11315B00024DA6041F205021C605C665A609C609B
S11315C05C61DC6499645C679C67DC675A601A68D8
S11315D01A6000F055F9264A00F5E1435B014FF427
S11315E0E110B3FBF0F3203B02EAC3033268214667
S11315F0536120460123042201F014FE01231A46FC
S11316001946204601F00EFE3368032205219C672B
S11316105A67D960174B4FF0E06119604FF44021CD
S11316201C62DC625C63DC66C3F880100131C3F8C1
S11316308840C3F88440C3F89850C3F8B0100E49EA
S1131640C3F8B840C3F8B4408A620122DA6303F1F4
S1131650C06302229A6070BD501000204010002028
S1131660001000204041050000250A00F9FF010098
S1131670F8FF7F0000200E4000200E44084B986ABB
S113168010F0020006D003F1806302221A629A620B
S1131690012070471B6A9B07FBD4024B0222F6E72A
S11316A000200E4000200E447F2938B5044615461C
S11316B024D8FFF7E3FF20B3134B2046621890426F
S11316C00DD1124B1A88013961F30E121A80104A97
S11316D0C2F8C8300223D36335B9002038BD10F8EE
S11316E0014B03F8014BEAE7FFF7C8FF0028FBD0E2
S11316F0084B1A6813699B06FCD5EEE741F2031008
S1131700ECE741F20620E9E7B41200204010002083
S113171000200E405010002008B50146FFF7AEFF30
S11317200028FBD0054B1B681A695006FCD5596389
S11317301A699206FCD5002008BD00BF5010002095
S11317400E4BD3F8940040F2011398420FD040F2AC
S1131750022398420DD00A4BC01A0A4B1B688342DD
S11317600AD02ABFC3F50073C01AC01870470020FE
S1131770F3E74FF48070F0E70020704700200E403C
S1131780B0100020B01200202DE9F843089F044651
S11317900D461646F3B9FFF7D3FF214ADFF888E078
S11317A01368204FA84228BF284604EB000C0021F0
S11317B04FF001084FF0020964451DD101B11360D7
S11317C006B1306041F20423A84234BF1846002019
S11317D0BDE8F8832FB1FFF761FE00213846FFF71B
S11317E089FEFFF7ADFFA842D5D2002FF9D0FFF74D
S11317F0A5FE0028F5D0CEE71EF8031004F8011B5F
S11318000133B3F5007F04D1C7F808900023012108
S1131810D2E7B3F5807F08BFC7F80880F7E700BFB9
S1131820B012002000200E46B010002007B501239E
S1131830009100221946FFF7A7FF03B05DF804FBEF
S113184010B10B4B02221A6279B1094A09490123EA
S11318501362936202F17C420020C2F89810064998
S11318600860D363054B02229A600020704700BFD2
S113187000200E4400100020B012002000200E466C
S113188030B51B4B87B001AA03F1100518685968DD
S1131890144603C40833AB422246F7D11B78154AD9
S11318A02370D2F8943003F00703022B1BD0136982
S11318B0C3F30443102B18D818336B440E4813F8A1
S11318C0143C0E4943438B4203D11269C2F3416273
S11318D0D340084AD2F80001C0F304200130B3FB1E
S11318E0F0F007B030BD064BF3E7064BF1E700BF5D
S11318F0D838000000400E4040420F0000093D006F
S113190000F04902C0EA21011C4AD2F8B03043F089
S1131910040313B5C2F8B0300F21012304220320BD
S113192001F080FC00230093009B632B20DD012346
S113193002220F21032001F075FC00230193019B77
S1131940B3F5FA7F17DB0E4B0022D3F8BC450F2109
S11319500123032001F066FC084AD2F8B030601E6F
S113196023F0040318BF0120C2F8B03002B010BD48
S1131970009B0133D7E7019B0133DFE700400E40B2
S113198000101442002070470020704770B5D1E960
S11319900152AA4205D290F840302B449B1A402BA6
S11319A010D9002012E00A6890F84040D65C90F804
S11319B04120224402F03F020133013486548B60FB
S11319C080F840408B689D42EDD8012070BD2DE920
S11319D0F8431D461746D1E901329B1A90F840207E
S11319E09DF820909DF8248013449D4204460E46A1
S11319F056D9FFF7CBFF00285CD1112384F8463079
S1131A0041F20200BDE8F88394F84120A25CFA5444
S1131A1094F84120013202F03F0284F8412094F806
S1131A204020013A84F84020013394F840200AB160
S1131A309D42E9D1D6E90121914201D29D4231D89A
S1131A409D42DAD1D4F888202946384600F09EFC1D
S1131A50C4F88800B9F1000F04D0E06C2A46394676
S1131A6000F02AFDB8F1000F08D094F843308BB190
S1131A70A06C2B463A46394600F0C2FC94F8433039
S1131A8043B1E36DA26D2B449342E36524BF00236D
S1131A9084F84330636D2B44636541F20300B1E77E
S1131AA00023C2E73268525CFA54B2680132B26071
S1131AB00133BFE70020A5E77FB50023CDE900335C
S1131AC0082315460DEB03020446FFF780FF41F29D
S1131AD003039842064626D194F8433063B10822A2
S1131AE00DEB0201E06C00F0E7FC08230DEB0302B0
S1131AF0A06C114600F084FC039A6A6094F84320B9
S1131B00029B2B605AB9094A934208D0084A93426F
S1131B1005D00822E06C0DEB020100F0CDFC6B68EF
S1131B20236500236365304604B070BDF70A0AF7E5
S1131B30FC0404FC2DE9F743044658680E46174696
S1131B409846002843D011F0030343D1D3F8283832
S1131B50206E1B6902EB000C1D1D65451CD81C334F
S1131B60984219D28542294638BF0146081AC5F160
S1131B70680506EB000968189C4594BFC1EB0C028C
S1131B80C1EB030220444946019201F0C3FD019ACE
S1131B90FF21484601F0CCFD226E48F204039A422C
S1131BA00BD8B81848F20701884206D99B1AF25894
S1131BB0C4F880204FF0FF32F250206E3A46D8E944
S1131BC000353146A847226E3A442266002003B00D
S1131BD0BDE8F08341F20200F9E72DE9F04103F09A
S1131BE02003002504464FF0FF38C0E918550F467E
S1131BF01646A0F8405080F84350A0F8445080F8AE
S1131C00465080F84230C0F888801822FF2168309E
S1131C1001F08EFDC4E91276C4F88080C4F8848093
S1131C2016B1304600F03EFC0020BDE8F081000013
S1131C302DE9F04FA5B0CDE9112302932E9DDFF8D5
S1131C408093002304460F461393139A029B9A42EF
S1131C5001D30020AEE094F84630112BF6D8DFE82B
S1131C6013F04E0095008F00BB0135002A00ED01F2
S1131C703500E5013500E501050374031200570141
S1131C80D002620274034FF00008636D0F2B7BD8FF
S1131C900126102314AACDF80480009611A9204629
S1131CA0FFF795FE0890089A41F203039A4200F068
S1131CB02181089B2FE00126D4E91432934200F2DB
S1131CC02D8184F8466041F2030324E04FF00108BB
S1131CD0D4E91462964257D9B61ADDE91223D21A0E
S1131CE094F84030032E1A4440F2AC81032A00F2E7
S1131CF0AC8111A92046FFF749FE00230BE014AA8A
S1131D0011A92046FFF7D8FE0590059B41F2030276
S1131D10934202D0059B049345E0159A2265002264
S1131D20149962659C4A914240F03081022284F801
S1131D304620F0E70123009314AA0823019611A971
S1131D402046FFF744FE0690069A41F203039A42A6
S1131D5001D0069BDFE7149B03F07F43B3F1407F80
S1131D6005D0112384F8463041F20903D3E7159BCB
S1131D70D90706D594F8423043F0010384F8423081
S1131D800026636D072BD5D9012354E114AA11A9A8
S1131D902046FFF791FE0790079E41F203039E42FF
S1131DA00BD0079E0496049A41F203039A423FF42F
S1131DB04CAF049825B0BDE8F08F94F84420149BF0
S1131DC022B1764A93421AD10B2338E094F8422088
S1131DD0D2073ED594F84320002A3AD170498B4269
S1131DE030D014D84B4579D018D86E4A934206D0D7
S1131DF00BD8694A934202D06B4A93420ED1112305
S1131E0084F8463041F20106CCE7684AF5E7634AB4
S1131E109342D9D00DD8664A93420FD0112384F847
S1131E20463014A8FFF7AEFD0028EBD141F20806B6
S1131E30B8E7604A9342E2D05F4ADEE70D2384F8B4
S1131E404630AFE70E2384F84630236DC4E91632DA
S1131E50A8E74B453ED025D8524A934230D0534A46
S1131E60934231D0504A93422CD014A8FFF78AFDF4
S1131E70002835D01023149884F84630C4F88C0018
S1131E80FFF782FD94F842309B068BD5002889D059
S1131E904368002B86D0204698470790079B002B69
S1131EA080D0AFE7434A934212D0434A93420DD0C5
S1131EB03A4A9342D9D194F84330002B84D09EE718
S1131EC00323BCE70523BAE70623B8E70823B6E7EC
S1131ED00A23B4E794F84330002B90D10F23AEE7E4
S1131EE0112384F8463094F84330002B9ED041F2FD
S1131EF0040657E7D4F848A000F0ECFA8023CDE9B3
S1131F00000315AA33460221504600F059FABCE6F4
S1131F10012384F8433084F8463096E614AACDE9C8
S1131F20006611A92046FFF752FD0990099A41F273
S1131F3003039A4201D0099BEDE60DF1500C07F121
S1131F4008030DF1680E624603CA724518605960B1
S1131F50944603F10803F6D1106818603B7843F007
S1131F6001033B70A8E63B78144E159943F0020335
S1131F703B70149B7B60236D0022083B7B62936A59
S1131F801868B04205D1DB688B421BD0112384F85A
S1131F90463041F20103BEE6EB17A603FC0404FC41
S1131FA0F90707F9F50909F5F40A0AF4F60808F639
S1131FB0FA0606FAFD0303FDFE0101FEAD1007B0AB
S1131FC0F70A0AF7042384F8463094F84530626629
S1131FD043F0010384F84530636D072B3FF673AE7D
S1131FE00123CDE9003314AA082311A92046FFF7E1
S1131FF0EEFC0A900A9A41F203039A42B3D00A9B78
S113200089E6042314AACDE9006611A92046FFF746
S1132010DEFC0B900B9A41F203039A4201D00B9B16
S113202079E6236D042B02D9149B23660126636D84
S1132030032BE6D9092384F8463044E6002363667B
S1132040072368E796423FF654AE402E28BF402649
S1132050964228BF1646032E88BF26F00306334651
S113206014AACDE9008811A92046FFF7B0FC0C9012
S11320700C9A41F203039A4201D00C9B4BE694F86C
S113208046B0BBF1070F04D1D5F808A0BAF1000F90
S11320901BD1042EC6F1040A14AB88BF4FF0000A0A
S11320A05246FF21981901F043FBBBF1090FB244DA
S11320B014D12B46524614A92046FFF73BFD0C9041
S11320C00C9B002B3FF404AED7E732462B68606EBE
S11320D014A9D047626E32446266F9E5BBF1040F7D
S11320E07FF4F6AD7B7898077FF5F2ADEB68002BB3
S11320F03FF4EEAD626E042A0BD80AEB0203062B02
S113210007D915AB9B1A1A68C4F884204FF0FF3224
S11321101A60EE682B68606E524614A9B047666E6A
S113212056446666D4E594F8426016F0200607D05B
S1132130D4F88C00FFF728FC064600283FF429AFAA
S11321404FF0010A42E04BB346B3336933B3204640
S11321509847DDE9123294F840809B1A4344834245
S1132160FFF4C7ADD4E91421A2EB0108B8F1400F84
S113217028BF4FF04008984528BF9846434614AA04
S1132180CDE900AA11A92046FFF721FC0D900D9A74
S113219041F203039A4203D00D9BBCE50120D8E72A
S11321A094F84230990611D5002E3FF4F2AED6F8D9
S11321B008B0BBF1000F3FF4ECAE2B46424614A925
S11321C02046D8470D900D9B002BE5D1D4E914216E
S11321D094F84230914203F02003B4D3002B3FF42F
S11321E0D3AD002E3FF4D0ADF368002B3FF4CCAD5B
S11321F02946204698470D900D9B002B3FF4C4AD13
S1132200CAE794F84460002E7FF4BEAD402314AABC
S1132210CDE9006611A92046FFF7D9FB0E900E9A6E
S113222041F203039A4201D00E9B74E5E06C00F086
S113223045F9D4F84C8000F045F9039000F046F9D4
S1132240039B00901CAA14A9404600F0EBF80E90E2
S11322500E9B33B11123FE7084F8463041F206031D
S113226059E50123FB7084F844308DE50023CDE962
S1132270003314AA042311A92046FFF7A8FB0F90EA
S11322800F9A41F203039A4202D00F9B049390E504
S1132290D4F888202E4B9A4205D0112384F8463076
S11322A041F20503F2E70123FB7094F84530DA07A5
S11322B007D5EE682EB104222B6804F18401104680
S11322C0B04794F845309B0707D5EE682EB1042239
S11322D02B6804F184011046B047236E73B36E6813
S11322E066B34FF0FF3304F18001042210A8109369
S11322F0029101F0FFF928B12B680299042248F2F7
S11323000400B04704F168090422494610A801F00A
S1132310F1F998B100231422D3F82838D3F81080A7
S113232004F16C01D5E9003608F10800B047042235
S1132330D5E90036494608EB0200B0470123BB70DB
S11323400C2384F846300023A0E741F2070031E56E
S1132350E320BBDE49BA89B24840C0F303135840B6
S113236003B283EA0033580100F4FF509BB2584093
S1132370704738B5044645181046AC4200D138BD04
S1132380014614F8010BFFF7E5FFF6E710B50A4C18
S1132390D4F8B03043F02003C4F8B030074B012424
S11323A01C6001449A605C60884201D1D86910BD08
S11323B010F8012B9A61F7E700400E4000C001407D
S11323C0F8B5044616461D460F4601F096F8DDE9B9
S11323D00612204601F095F80023636284F83870F1
S11323E03368C4F839307368C4F83D30B368C4F84E
S11323F041302B0C6DBA84F84530A4F84650F8BD32
S113240030B585B00D46194600F12803CDE90152D7
S1132410009300F1240200F1380301F090F805B0B4
S113242030BD00002DE9F041A2B00E46DDF8A080D9
S113243015461F46044670B369B362B35BB3B8F183
S1132440000F28D01548012100F0CEFD40220021C4
S113245002A801F06DF9394602A800F001FB12AFA1
S113246041460AA800F0FCFA40220021384601F057
S11324705FF93146384600F0F3FA29461AA800F00D
S1132480EFFA0748009702AB2022214600F0FAFA3F
S113249022B0BDE8F08140F20160F9E700150A00BE
S11324A000000F4010B5044600F0E2FC2046002175
S11324B0BDE8104000F0E0BC00F0E3BC014600F0D1
S11324C0EDBC0000004870474A43E00F00487047E5
S11324D06A43E00F004870478642E00F2DE9F0415F
S11324E004461D460F46904600211C22181D01F08B
S11324F01FF901232B6000F0B7FD4146064604F5A1
S1132500807000F006FE394604F5827004F5847785
S113251000F0FFFD2946384600F0FBFD304600F090
S1132520A7FD0D4E0D4B0E4A0E490F4823656369F6
S1132530DB010BD500F098FD29460446384600F02F
S1132540F0FD2046BDE8F04100F092BD22656165D2
S1132550A065E665EBE700BF39380100393984012D
S1132560D02484FC1C82FED88B1C81A02DE9F04F62
S11325702DED028B8BB004469A460D46164600F0AC
S113258073FD04F5827705F14002114604F5867B5C
S113259080463846019200F0BCFD3146584600F0B2
S11325A0B8FD04F58873184606F12001009300F085
S11325B0B0FD404600F05CFD434921654349616537
S11325C001264349A165E66500F04EFD2946814692
S11325D0384600F09EFD04F5847805F12003194681
S11325E0404608EE103A00F094FD019A009B114613
S11325F0184600F08EFD484600F03AFD354B236541
S1132600354B6365A66500F02FFD04F580790090D5
S11326100AF14001484600F084FD02A9404600F05A
S113262080FD009B184600F023FD00F01DFD2946A7
S11326300090584600F06DFD009B184600F018FD10
S1132640264B2365264B63656FF42672A3F5FE23A0
S11326501344A365E66500F007FD18EE101A05465D
S1132660384600F056FD284600F002FD1D4B236558
S11326701D4B6365A66500F0F7FC514605464046D0
S113268000F04FFD284600F0F3FC00F0EDFC02A939
S11326900546384600F03DFD284600F0E9FC134BA2
S11326A02365134B6365A66500F0DEFC0AF1200187
S11326B00446484600F035FD204600F0D9FC0BB036
S11326C0BDEC028BBDE8F08F8AD11C81D91C83D16B
S11326D01C81E11CD01482CB1481E11C8CE11C818F
S11326E01C84D91CE014D8141482E11C84D31482F1
S11326F0D11CE0142DE9F041044690B00F46244E5D
S11327000521904600F066FD002323602363636384
S11327100FCE08AD0FC596E80F0085E80F0008AA94
S11327206B4607F140012046FFF7D8FE00F09CFC01
S113273004F586760546694604F5827000F0E9FCE6
S11327403946304600F0E5FC07F1200104F58870B5
S113275000F0DFFC284600F08BFC0E4B23650E4B8B
S113276063650E4BA3650123E36500F07DFC08F16E
S11327702001054604F5807000F0D3FC4146304644
S113278000F0CFFC284600F073FC10B0BDE8F081E7
S1132790F83800008AD11C81D91C83D11C81E11C2A
S11327A003685BB903461C2053F8042F0AB90438A4
S11327B0FAD10028CCBF00200120704700207047C8
S11327C02DE9F04FA5B01D460446CDE9001205A839
S11327D01C22002100F0ACFF4FF001082022002150
S11327E0284605F12007CDF8108005F1400A00F0D5
S11327F09FFF20220021384600F09AFF202200216A
S1132800504600F095FF0521204600F0E3FC00232C
S11328102360FF26236363637211019906F01F038B
S113282051F8221008FA03F30B42324606F1FF3640
S113283001D0164601E0002EEED100F015FC04F59F
S11328408273394680461846029300F062FC404683
S113285000F00EFC764B774A23656265764AA265E2
S113286000F002FC04F5807914A98046484600F083
S113287058FC404600F0FCFB00F0F6FB294680467D
S1132880484600F046FC404600F0F2FB6B4A6C4BB5
S113289022654FF486726365A26500F0E5FB04F5DA
S11328A0867883460CA9404600F03BFC1CA94846A8
S11328B000F037FC584600F0DBFB00F0D5FB029B30
S11328C0039351468346184600F023FC584600F013
S11328D0CFFB5C4B23650123636500F0C5FB04F566
S11328E0847B29460290584600F013FC029A104655
S11328F000F0BEFB544A226502F1D94202F5DE1211
S113290002F595626265A2F586120123A2F2BA422B
S1132910A265E36500F0A8FB1CA90290584600F0EC
S1132920F8FB0CA9404600F0F4FB029A104600F0B4
S11329309FFB464A2265464A6265464AA26500F004
S113294093FB2946029004F5887000F0EAFB029A92
S1132950104600F08DFB00F087FB039B0290394684
S1132960184600F0D6FB5846514600F0D2FB14A995
S1132970404600F0CEFB029A104600F079FB364B3D
S11329802365364B636500F06FFB5146834648462A
S113299000F0C7FB3946404600F0C3FB584600F040
S11329A067FB012106F01F0301FA03F37211019979
S11329B051F82220134211D02846FFF7F1FE38B116
S11329C03846FFF7EDFE18B15046FFF7E9FE58B957
S11329D0009A2B4629462046FFF7C8FD013EBFF466
S11329E02CAF25B0BDE8F08F009BAC4603F1200E60
S11329F018685968624603C2083373459446F7D190
S1132A00BC4603F1200E18685968624603C20833B5
S1132A1073459446F7D10DF1100EBEE80F0005F191
S1132A20400CACE80F009EE80F008CE80F00D5E7DF
S1132A308AD11C81821CC00C0C0C0100C00C0C83BC
S1132A40D91C83D88AD11C83DA0C81148CE11CD064
S1132A501484E31482D11C01D81483D11CC00C014A
S1132A6038B5202204460D46002100F061FE05F130
S1132A702003601E13F8012D00F8012FAB42F9D199
S1132A8038BD00002DE9F04FBBB00D4604460021CF
S1132A9093460AA86022449E994600F049FE6022AB
S1132AA0002122A800F044FE002D00F01C81B9F1A1
S1132AB0000F00F01881002E00F01581BBF1000F0B
S1132AC040F311810023236023636363636843F04D
S1132AD0100363600C21204600F07CFB6368DFF880
S1132AE024C223F4406343F400636360636823F403
S1132AF0407343F400736360BCE80F002AAF0FC750
S1132B009CE80F0087E80F0000F0AEFA04F5847823
S1132B1082463146404604F5867700F0FAFA2AA93F
S1132B20384600F0F6FA504600F0A2FA6F4A2265E1
S1132B30012363656369DA0104D440F202603BB0A7
S1132B40BDE8F08F311F082351F8040F002800F06E
S1132B50C28000F089FA06F1200A019051464046ED
S1132B6000F0D7FA2AA9384600F0D3FA019B184698
S1132B7000F07EFA01235D4A226563656369DB0127
S1132B80DBD55246082352F8041B002900F0A78025
S1132B902022002132A800F0CBFDBBF1200FA8BFFA
S1132BA04FF0200B0BF1FF32013D22F0030303F53C
S1132BB094736B4402F0030C15F8010F53F8601C76
S1132BC04FEACC0C00FA0CF00843013A43F8600CCD
S1132BD0EBD200F049FA32A90546404600F099FAD2
S1132BE0284600F045FA424B236500F03DFA04F50F
S1132BF0807B054632A9584600F093FA284600F037
S1132C0037FA2AAA02AB51462046FFF767FC00F0C8
S1132C102BFA04F5887A054602A904F5827000F0BF
S1132C2078FA32A9504600F074FA3146384600F07A
S1132C3070FA284600F01CFA2E4B236503F1FA4380
S1132C40A3F50063636500F00FFA32A90546504608
S1132C5000F067FA02A9584600F063FA284600F02B
S1132C6007FA25490AAB32AA2046FFF7A9FD22AB91
S1132C7002AA49462046FFF7A3FD0AAA11462046A8
S1132C80FFF738FD22AB19460AAA2046FFF76EFC6F
S1132C9022AA11462046FFF72DFD00F0E5F90C218C
S1132CA00546204600F096FA22A9404600F031FA83
S1132CB03146384600F02DFA284600F0D9F90F4B7A
S1132CC023650F4B6365636913F0807F40F20460F2
S1132CD018BF002033E7013B7FF436AF2DE7013BFB
S1132CE07FF451AF29E740F2016028E73035DA106C
S1132CF030D00C0130E11C84383900003035DA144E
S1132D0039380100183900002DE9F34799460A9B28
S1132D100C4619683F290546164642D85A68002AC7
S1132D2041D0224A002E14BFB046904601F03F071E
S1132D30091928BF5A68196024BF01325A60AFB11B
S1132D40C7F1400AA24521D82946524609EB07009B
S1132D5000F0E0FC01230093414633464A4600203C
S1132D6000F0A4F8403C55443C44B0463F2C0CD9F8
S1132D70A30900932A4633464146002000F096F802
S1132D8024F03F031D4404F03F0400272CB12246E5
S1132D90294609EB070000F0BDFC002002B0BDE8A5
S1132DA0F0879046C2E7DFF80480BFE77839000077
S1132DB030B40546084611461A46DDE9023425B901
S1132DC031B1029430BCFFF79FBF024830BC70475A
S1132DD00846FBE780AFFFFF2DE9F041146886B099
S1132DE01E46E3008DF80F30630917468DF80E3048
S1132DF05268630B8DF80D30630D8DF80C30D300E1
S1132E0003EB54738DF80B3004F03F045309372C53
S1132E108DF80A304FEA52334FEA525205468DF884
S1132E200820CDE9001794BFC4F13802C4F1780238
S1132E3088468DF809300D4903460020FFF7B8FF96
S1132E400821434600972A460DEB0100FFF75CFF7B
S1132E50284605F1200350F8042B46F8042B984229
S1132E60F9D1002006B0BDE8F08100BF9839000018
S1132E706822002100F05CBC0023C0E9003318463E
S1132E80704707B500F128030190009300F108038F
S1132E900020FFF78DFF03B05DF804FB02460B46EC
S1132EA000F128010830FFF797BF00002DE9F04F2B
S1132EB099B00546884691461F4600F003FC044637
S1132EC0002D7DD1042303604560C56443686A46D0
S1132ED023F44063436008F11C010563A8F1040373
S1132EE04563904653F8040F00BA8B4242F8040B32
S1132EF0F8D100F0B9F84146054604F5827000F0B7
S1132F0008F9284600F0B4F82F4B23654FF0000A67
S1132F1009F00306229A924527D1BB0704F580766F
S1132F2043D000F0A1F841460546304600F0F9F8D8
S1132F30284600F09DF808AD3A46434603CBAB4221
S1132F4010605160984602F10802F6D1204600F064
S1132F50C3FB3B1F1C3753F8042F12BABB421A6041
S1132F60F9D1002019B0BDE8F08F09EB8A1566B1DC
S1132F700DF1200C05F1400E28686968624603C211
S1132F80083575459446F7D108AD00F06DF829462B
S1132F90834604F5D27000F0CCF8584600F068F887
S1132FA00A4B23650AF1010AB4E700F05DF83946DB
S1132FB00546304600F0B5F8284600F059F8C5E754
S1132FC06FF07100CEE700BF888AC801070D810148
S1132FD0044BD3F84421D20703D4D3F84021104240
S1132FE0FBD1704700400E4038B5C0F30323013BCA
S1132FF0092B16D8DFE803F02616151505191C153C
S11330001F23124C0023C0F3043513B11846FFF7F5
S1133010DFFF04F1424404F5801405EBC404A4006A
S1133020216038BD0A4C0023EDE70A4C0123EAE78E
S1133030094C1023E7E7094C4FF48033E3E7084CCD
S11330400023E0E7074C0023DDE700BFB0400E405B
S1133050C0400E40E0400E40E8400E40F0400E40BC
S113306050410E4000400E40EFF3108072B670479E
S113307000B962B6704730B5D1E90223D1E90054F2
S1133080056004600260036030BD30B50568046803
S113309002680368C1E90054C1E9022330BD7FB569
S11330A08B07044611D00B466D4601F110061868D3
S11330B059682A4603C20833B3421546F7D1694614
S11330C02046FFF7D8FF04B070BD0091009904B00A
S11330D0BDE87040FFF7CFBF30B58B0785B00C4615
S11330E010D06946FFF7D1FF0D46234604AC2A46AB
S11330F003CAA24218605960154603F10803F6D1C9
S113310005B030BD0091009905B0BDE83040FFF72F
S1133110BCBF10B5FFF7AFFFBDE810401031FFF79B
S1133120AABF10B5FFF7B1FFBDE810401031FFF79B
S1133130ACBF10B5FFF79FFF0C461031FFF79BFFA4
S113314004F12001FFF797FF04F13001BDE81040BE
S1133150FFF791BF00F1424303F58013102A4FEAB1
S1133160431305D101221A6000F58870FFF7D1BF1F
S113317000221A602430FFF77EBFF0B50B46990792
S113318089B0054614461ED0082A6E4610D103F1B4
S1133190100718685968324603C20833BB42164602
S11331A0F7D1224669462846FFF7D4FF09B0F0BD9F
S11331B003F1200718685968324603C20833BB423A
S11331C01646F7D1EDE70093009909B0BDE8F04049
S11331D0FFF7C0BF436823F01F030E290BD8DFE8B5
S11331E001F008080808080B0B0B080808080B0B6B
S11331F00B00194341607047194341F01001F9E78E
S113320070B505460E461446FFF72EFF296881EA7D
S1133210040202EA06044C402C60BDE87040FFF74B
S113322027BF000000EB4000F8B50D461F4604011F
S113323016463AB1164801238B402044CFB100F121
S1133240C0600360072D4FF00F0115D8AB00114883
S113325006FA03F299402044FFF7D2FF46B90C4A1C
S1133260012101FA05F5224477B102F1C06215602B
S1133270F8BD00F18060E4E7A5F108039B0006486F
S113328006FA03F29940E6E702F18062EFE700BF35
S11332900CA0004004A0004008A00040214B41F6CF
S11332A071311A6C1964996841F001019960012126
S11332B01861D960D969490792B209D5996821F092
S11332C0010199600AB100221A644FF0FF3070477F
S11332D00221D9601449D869C00700D569B9D869F1
S11332E010F002000BD0996821F0010199600AB135
S11332F000221A646FF0010070470139EBE741B90D
S1133300986820F00100986002B119646FF002001F
S11333107047996821F0010199600AB118647047F7
S11333201046704700000E40809698002DE9F04F3B
S1133330054602F16040B0F5F84F03D94FF0FF3075
S1133340BDE8F08FDFF8C4C02E4CDFF8C490DFF87E
S1133350C480302606FB05C64FF44010C6F8800032
S11333600020C6F88400C6F88800C6F8980041F624
S11333707130D4F840A02064A0684FF0010E40F0F2
S11333800100A0600EFA05F55BB90422E260A268B0
S113339022F00102A2601FFA8AF202B123641846E5
S11333A0CEE701F50060216100EA0900C4F80CE0F1
S11333B0401AD4F81CB0984228BF18461BF0040FDA
S11333C04FEA9007BAD1013F3F0147F06057C6F872
S11333D08C700D4FC6F89020C6F89470DCF82070FD
S11333E02F43CCF820701027E760DCF828703D42AA
S11333F0FBD0C8F828500144C8F8205002441B1AD6
S1133400C2E700BF00000E4018000E4000200E402E
S113341000F8FFFF00200E440D4AD2F8E430D2F841
S1133420E0109B0003F03C03C1F381110B43837054
S1133430D2F8E03003F03F034370D2F8E830D2F81A
S1133440EC2003F0F003C2F303121343037070473C
S113345000FF0FE02DE9F04F0C780CB90223436014
S1133460002343624B78CA7891F802B08D7A91F8C0
S113347008A091F8069091F80780002B4B7A4FEA48
S1133480024214BF4FF0400E4FF0000E42EA0B62AE
S1133490002B14BF8023002342EA0A02002DCD7AB8
S11334A042EA892214BF4FF0200C4FF0000C42EA8C
S11334B00822002D0D7B42EA0E0214BF10270027BC
S11334C01343002D0D79497943EA0C0314BF0826F0
S11334D000263B43002D14BF4FF400550025334311
S11334E0002914BF4FF0805100212B430B4303608C
S11334F00CB101234360BDE8F08F2422002100F0C9
S113350017B970B515460E4624220021044600F072
S11335100FF9C02D0DD0B5F5807F01D0802D0BD1D2
S11335202046EA0840F8045B314600F0F3F8002036
S113353070BD6FF07100FBE76FF01F00F8E72DE935
S1133540F04F2DED028B85B008EE903A01908B463A
S1133550164652B11568019B1B68802B03D0B3F546
S1133560807F40F0A98000270DE01546F3E7B5B150
S1133570119B109ADB5D525D5340129A0135D3556D
S113358005F00F0501375F45F1D3002E00F0978059
S11335903560002005B0BDEC028BBDE8F08F00F073
S11335A091F84FF44043456003600446FFF75CFD27
S11335B0019951F8043B802B0CBF0822102280464D
S11335C02046FFF7DAFD04F18403184618EE901A3A
S11335D008EE103AFFF763FD4046FFF749FD119BE3
S11335E0ABEB070803EB0709129B28F00F0803EB6A
S11335F0070A09EB080291451DD1119BB84403EB5E
S11336000809129B9844119B052203EB0B0A032320
S1133610D14531D1FFF728FD18EE901A074618EE70
S1133620100AFFF759FD3846FFF722FD204600F047
S113363053F85F46A7E74823A3600523A3602369E3
S11336409907FCD40323A3600392FFF70DFD4946B9
S1133650029004F1A000FFF722FD514604F180001E
S1133660FFF73AFD029B1846FFF702FD09F1100926
S1133670039A0AF1100ABEE79DB94821A160A2602D
S113368021698A07FCD4A360FFF7EEFC1099074672
S113369004F18000FFF720FD3846FFF7E9FC05221E
S11336A00323109819F8011B405D0135414008F8C7
S11336B0011B05F00F05ABE76FF020006AE7304609
S11336C068E70000024B03480122C3F80426704750
S11336D00010C84300000F40054B984201BF03F19E
S11336E06E7303F588330022C3F80426704700BFC5
S11336F000000F4010B501390244904201D100206E
S113370005E0037811F8014FA34201D0181B10BD46
S11337100130F2E70A44914200F1FF3300D17047CF
S113372010B511F8014B03F8014F9142F9D110BDC6
S113373002440346934200D1704703F8011BF9E7A2
S1133740F8B500BFF8BC08BC9E467047F8B500BF8A
S1133750F8BC08BC9E46704700000000CD0E000077
S113376000000000F10E00000D0A4765636B6F2036
S1133770426F6F746C6F616465722076582E59596C
S11337802E5A5A0D0A312E2075706C6F61642067B1
S1133790626C0D0A322E2072756E0D0A332E20656E
S11337A0626C20696E666F0D0A424C203E20000256
S11337B005000D0A4661696C656420746F20626FB0
S11337C06F740D0A000D0A66696C65206572726F6C
S11337D072203078000D0A53657269616C2075702F
S11337E06C6F61642061626F727465640D0A000D10
S11337F00A53657269616C2075706C6F6164206333
S11338006F6D706C6574650D0A000D0A62656769F9
S11338106E2075706C6F61640D0A000D0A626C6F26
S1133820636B206572726F7220307800B814B6F141
S1133830E0CFF3ADB7DD25C9FA79B7130000000076
S113384007B0CD5E02000000020001024832000011
S11338500040000000000400F0001000BD10000053
S1133860C1100000A50F00005112000081120000D9
S113387000000000BB120000311300000000000033
S113388000000000B710000013B779FAC925DDB7AE
S1133890ADF3CFE0F1B614B801020000000000005F
S11338A04432000040000000020001020000000059
S11338B00000000000000000000000000000000004
S11338C000000000000000000000000000000000F4
S11338D000000000000000000400000700000D10BC
S11338E013001A2026303840480000002000000051
S11338F000010000050C0000FFFFFFFFFFFFFFFFBA
S1133900FFFFFFFF000000000000000000000000B7
S113391001000000FFFFFFFF512563FCC2CAB9F399
S1133920849E17A7ADFAE6BCFFFFFFFFFFFFFFFF72
S113393000000000FFFFFFFF96C298D84539A1F4AC
S1133940A033EB2D817D0377F240A463E5E6BCF858
S113395047422CE1F2D1176BF551BF376840B6CB23
S1133960CE5E316B5733CE2B169E0F7C4AEBE78E1F
S11339709B7F1AFEE242E34F6A09E667BB67AE85A6
S11339803C6EF372A54FF53A510E527F9B05688C3D
S11339901F83D9AB5BE0CD1980000000000000005C
S11339A00000000000000000000000000000000013
S11339B00000000000000000000000000000000003
S11339C000000000000000000000000000000000F3
S10B39D00000000000000000EB
S10F39D8E439000000100020180000007A
S11339E4F00F100300000000B010002013000000CA
S11339F4090000000001000002020000130000009E
S1133A04F00F100300000000B011002013000000A8
S1133A14090000000002000001010000D3FFFFFFC1
S1133A24F07F1030B41200200000000000000000F9
S1133A340000014000220400ED080000C908000051
S90309599A
