S01400006E63702D756172742D68775F322E73333719
S21400400000100020D9470000797C00007D7C00006D
S214004010A70A0A010042000004180FACB80B000003
S214004020000000000000000000000000000000008B
S214004030000000000C51030000000000000000001B
S2140040400000000000000000FFFFFFFFFFFFFFFF73
S214004050FFFFFFFF008003000000000000000400D8
S214004060FFFFFFFFFFFFFFFF100000000000000043
S214004070000000000000000000000000000000003B
S214004080000000000010002000000000D86400209F
S21400409000100020000000007A4E03000000002000
S2140040A00000000000000400000000000000000007
S2140040B000000000000000000000000000000000FB
S2140040C000000000000000000000000000000000EB
S2140040D000000000000000000000000000000000DB
S2140040E000000000000000000000000000000000CB
S2140040F000000000000000000000000000000000BB
S21400410000000000000000000000000000000000AA
S214004110000000000000000000000000000000009A
S214004120000000000000000000000000000000008A
S214004130000000000000000000000000000000007A
S214004140000000000000000000000000000000006A
S214004150000000000000000000000000000000005A
S214004160000000000000000000000000000000004A
S214004170000000000000000000000000000000003A
S214004180000000000000000000000000000000002A
S214004190000000000000000000000000000000001A
S2140041A0000000000000000000000000000000000A
S2140041B000000000000000000000000000000000FA
S2140041C000000000000000000000000000000000EA
S2140041D000000000000000000000000000000000DA
S2140041E000000000000000000000000000000000CA
S2140041F000000000000000000000000000000000BA
S21400420000100020D9470000797C00007D7C00006B
S214004210D7470000817C0000897C0000D74700005B
S214004220D7470000D7470000D7470000D747000011
S2140042308D7C0000CC4E0300D7470000D747000017
S214004240214E0000C93A0100D7470000393401006A
S214004250213B0100D53A0100ED3A0100CD3A0100BC
S214004260D7470000D7470000D74700005945000051
S21400427065450000D7470000D7470000D747000035
S214004280D7470000D7470000D7470000D7470000B1
S214004290D7470000D7470000D7470000D7470000A1
S2140042A0D7470000D7470000D7470000253B01004E
S2140042B0D13A010015990000613B0100D747000084
S2140042C041250100D747000010B5054C237833B9C7
S2140042D0044B13B10448AFF300800123237010BDD4
S2140042E0A820002000000000B871030008B5034BAA
S2140042F01BB103490348AFF3008008BD000000006F
S214004300AC200020B8710300A3F5803A704700BFC8
S214004310174B002B08BF134B9D46FFF7F5FF0021F8
S2140043208B460F461348144A121A30F071FC0E4B97
S214004330002B00D098470D4B002B00D0984700204C
S214004340002104000D000D48002802D00C48AFF3F1
S214004350008030F0F9FB2000290000F015F830F05E
S214004360DFFB00BF000008000000000000000000A7
S21400437000100020CC160020D864002000000000AA
S214004380000000001AF04CBC08B505F0E1FA05F094
S214004390ECFA04F04DFDFAE708B50421112001F00F
S2140043A0F9F80948012100F017FE0848032101F03A
S2140043B0F1F80748032101F0EDF80648032101F063
S2140043C0E9F8002008BD00BF30053E0002001E00D0
S2140043D00300200005002400274B13B501225A6471
S2140043E0264BD3F8FC4001A8240E02F02FF88E2CA2
S2140043F01CD82349D1F8B00040F00403C1F8B0300F
S214004400204B4FF050121A601A631A66C3F89020B9
S214004410C3F8C020C3F8F020C1F8B000184AD36A29
S21400442023F07F0343F02003D36201E08F2CF5D006
S2140044309DF80530012B01BF134AD2F8643143F0D2
S2140044400403C2F86431114B0022C3F8B42A02F008
S21400445069FA02F00FFA02F02FFAFFF79DFF02F05A
S2140044601FFA00F067FA03F0C3F800F01BFB02B077
S214004470BDE8104004F006BC00000E400081E00FCE
S21400448000400E4000A0004000300E400000C64332
S21400449000F082BA08B502F0B7F902F0D3F911F0CD
S2140044A0C7FE06F093FF06F0A7FF06F0DFFFBDE8A5
S2140044B0084015F0DDBC70477047704708B506F039
S2140044C093FF06F0ABFFBDE8084015F0DBBC704775
S2140044D008B502F0BBFA00F03DF8BDE8084002F06F
S2140044E09DBE08B504F030FF07F0BEFEBDE80840EC
S2140044F0FFF7EEBF70B5124E35460FCD92B00BAC3F
S2140045000FC495E80700002384E80700CDE90833C8
S2140045100A930C4A0C4BCDE9062301238DF8233071
S21400452006F11C030FCB02AC84E80F00074B009388
S2140045300BAA06AB2146064802F07AFD12B070BD03
S214004540A04E03000000014000220400C42000200A
S21400455028210020FFF7CEBF014B186802F01EBED0
S21400456028210020FFF7F8BF014B1A6A1868104789
S21400457028210020012070470120704710B503F065
S21400458026F8044606F0F4FF002808BF002404F0CE
S21400459051F9002808BF0024FFF7ECFF002814BFDD
S2140045A02046002010BD38B504F032FD0446FFF763
S2140045B0DBFF04281ED002284FF0000508BF0124A8
S2140045C003F007F8042817D0022808BF012406F0D5
S2140045D0F3FF042812D0022808BF0124FFF7CCFFFF
S2140045E004280DD0022808BF0124002D18BF00247F
S2140045F0204638BD0125E3E70125E8E70125EDE77C
S2140046000024F5E7014B1878704700BF4C210020C6
S21400461008B50CF007FC024B00221A7008BD00BF5C
S2140046204C210020FF20704708B5FFF7FBFF002055
S21400463008BD704770477047704710B5044615F0C0
S214004640B7FD20462BF0B4FB2046BDE810402CF00A
S214004650EBB82BF017BC10B5044615F061FE2046EB
S2140046602BF040FC2046BDE810402CF011B910B5E8
S214004670044615F0B3FC20462BF088FD20462CF0AF
S2140046802FF92046BDE810402FF05EBBFFF7EFBFC6
S21400469010B5044615F0D0FC20462DF02BFC204625
S2140046A02BF0A4FD20462CF04FF92046BDE8104024
S2140046B02FF064BB10B5044615F0FCFC20462DF028
S2140046C029FC20462BF0E0FD20462CF065F920461C
S2140046D0BDE810402FF052BB70472BF0B3BF10B4AC
S2140046E09DF8044001945DF8044B2BF095BE70478E
S2140046F016F07ABC7047704710B49DF804400194D9
S2140047005DF8044B2DF01CBC70472DF023BC16F052
S214004710FFBB16F013BC2BF041BE2BF06BBE16F0A1
S2140047201FBC2BF0CFBE2AF0ABBF2AF0C9BF2BF0C0
S214004730FFBE2BF020BF2BF032BF10B49DF8044014
S21400474001945DF8044B2DF006BC2BF0DFBE16F08E
S21400475029BC16F019BC2BF036BF2CF0CDB92CF0C6
S214004760D9B92CF020B82BF03CBF2FF025BB2FF08A
S2140047705FBB2FF06BBB2FF099BB2BF0F7BF14F08D
S214004780D1BB7047704782B06B4683E8060093E85B
S214004790060002B016F04CBF70472DE9F0419DF8B8
S2140047A018409DF81C509DF820609DF824709DF8D8
S2140047B034E09DF838809DF82CC0CDF82CC0CDE9AB
S2140047C00DE8CDE90867CDE90645BDE8F04114F0EF
S2140047D033BB70477047FEE708B500F07DF8124B14
S2140047E012498B4212D3124B124900208B4218D327
S2140047F0FFF78EFD186850F82240586840F82240AF
S214004800013298688242F5D30C33EAE70022F8E7D3
S2140048101C6844F8220001325C68A242F8D30833D0
S214004820E4E70022F8E700BFC0710300CC71030084
S214004830CC710300CC7103000048704700F04902B9
S2140048400D4AD2F8943003F00703032B11D0042B43
S21400485003D0022B0BD1094B00E0094B1868D2F8A5
S2140048600031C3F304230133B0FBF3F07047054B6C
S214004870F4E74FF40040F2E700400E40B810002086
S214004880C0100020BC10002008B5FFF7D9FF054B6C
S214004890D3F80831C3F308230133B0FBF3F0024B1F
S2140048A0186008BD00400E40B4100020014B186888
S2140048B0704700BFB8100020054B1860054BD3F8B2
S2140048C0943003F00703022B01D1FFF7DDBF7047DA
S2140048D0B810002000400E400D4B0E4A9A60D3F8E8
S2140048E0882042F47002C3F888200B4B5A6D42F4BD
S2140048F000525A651A6C22F003021A645A6F22F0AC
S21400490001025A671A6E22F080521A66704700BF7C
S21400491000ED00E00042000000300E404FF4004082
S21400492070474FF47A707047014B1868704700BFA5
S214004930C0100020002010B5D0F82838A3F500627B
S214004940B2F5605F0AD2074C227812F0FD0F04D150
S214004950DB69984708B90123237010BD4FF48170B6
S214004960FBE700BF4D21002000230360704703686B
S2140049700B6001607047000005490A681318054877
S21400498083428CBF4FF0FF320B601046704700BF6B
S214004990C4100020007C002008B52248012100F049
S2140049A01BFB012304220221052001F093FB0020BB
S2140049B001F084FB1C4B0122C3F81028114604208A
S2140049C000F078FD194800F03DFC194BD3F8F020B4
S2140049D042F00102C3F8F020D3F8FC2042F08072C7
S2140049E0C3F8FC20A3F55D43124A1A6000F5D520F3
S2140049F0114B00F2FC40B0FBF3F0104B01380222E2
S214004A001861C3F8F0204FF48072C3F804234FF007
S214004A1060430B4AC3F8B02F0A4AC3F8802E002022
S214004A2008BD00BF00250A000080144206000E00E4
S214004A3000ED00E0FF030040F8590D00000004E020
S214004A4055CEACC5090001004FF060420123D2F8F4
S214004A50001E03FA00F00843C2F8000E002070475C
S214004A604FF0604330B5D3F8802ED20715D5012419
S214004A700B4D8440D5F8FC2042F08072C5F8FC202F
S214004A80D3F8002E2243C3F8002E53F82020002A25
S214004A90F0D003F82010002030BD1120FCE700BF46
S214004AA000ED00E0024B1968024B18680AF07ABF66
S214004AB0CC100020C81000207047000037B59200C8
S214004AC004460D46019201F029FC431C0BD060B948
S214004AD0019A2946204630F063F80028044808BFAB
S214004AE0002003B030BD0348FBE70348F9E700BFEA
S214004AF010E000F021E000F024E000F013B50446DA
S214004B0001A801F0A3FC9DF80630238040F20113B3
S214004B106380074BD3F8E4301B0E0A33012203F000
S214004B201F0302FA03F30020636002B010BD00BF4B
S214004B300081E00F01F03ABB08B501F02BFB002026
S214004B4008BD10B5044644EA010313F00303084603
S214004B5009D1934201D1002010BD54F8231040F82B
S214004B6023100133F5E79200214630F029F8F2E7EA
S214004B7010B5044601F08AFB431C17D0C0B90D4B94
S214004B80D3F8E4301B0E0A3303F01F0201239340D0
S214004B9023F0030320462344984201D1002010BD91
S214004BA050F8042B0132F7D00348F8E70348F6E73D
S214004BB00348F4E70081E00F0EE000F021E000F08B
S214004BC024E000F008B500F0D9FD014B186008BDE0
S214004BD0E0270020014B186800F0D4BDE027002035
S214004BE070470000044A00EB80031068A0EBE30067
S214004BF080F3080080B270479828002038B5184B1C
S214004C0040289C6827DD5028B4BF01230223154A9C
S214004C10154D02EBC30292E80300144A02EBC302EE
S214004C2085E8030092E80300012C114D08BF0C4AEA
S214004C3085E8030004BF4AF6E8519160012B0CD0CA
S214004C40022B0AD0002001F0BFF9012C02BF044B52
S214004C5000229A6038BD0023D9E71846F3E700BF64
S214004C6000300E409C280020DC280020B4280020BD
S214004C700C290020FFF7C2BF044B4FF04042DA6217
S214004C801A6B22F040421A63704700BF00300E4095
S214004C90F0B52D4C2D4A236800210846156845B10D
S214004CA01D68002D42D09D889688AE4284BF13466C
S214004CB001210130062802F10802EFD101B123607C
S214004CC02348244A036800210D46166846B11E682C
S214004CD0002E2ED09E889788B7423CBF13460121EF
S214004CE00135062D02F10802EFD101B103602268FA
S214004CF0194B116801B3D969127921F0FF010A43F3
S214004D00DA611A6B42F080421A630368124A196825
S214004D10B1B19B88D1691B029BB221F47F410B4342
S214004D20D361136B43F000431363F0BD13460121B8
S214004D30BFE713460121D3E71A6B22F08042E3E770
S214004D40136B23F00043EFE7CC280020DC2800207C
S214004D50D02800200C29002000300E4008B501F0B5
S214004D6069F99FED137A07EE900AF4EEC77AF1EE32
S214004D7010FA19D49FED0F7AF4EE477AF1EE10FA96
S214004D80C8BFF0EE477A17EE900A2FF005FA0A4BE6
S214004D9000222FF0A3F8094B00222FF09FF82FF0E7
S214004DA0EDFC803840B208BDF0EE477AEBE700BF76
S214004DB0000000C30000FE420000E03F000060402C
S214004DC0144A38B5136B526A134012D5124B1B683F
S214004DD01D6835B100241C605C60FFF7BFFF2146EC
S214004DE0A8470C4B4FF00042DA62BDE83840FFF7A8
S214004DF04FBF5B00F9D5094B1B681C6834B1002215
S214004E001A605A60FFF7AAFF0121A047014B4FF036
S214004E108042E9E700300E40D0280020CC28002051
S214004E20FFF7CEBF2A4B012273B51A70002130223D
S214004E3028482FF0EDFE3022274800212FF0E8FE0C
S214004E40264A274B1360274A1360274AD2F8B03009
S214004E50D2F80421C3F30743FF2B02D0D2B2FF2AB5
S214004E6001D19022192303EB830302EBD3031F4ADD
S214004E7001A8136001F0EAFA9DF80530012B1BD15A
S214004E804120FFF7AFFE1A4D1A4CA88039202C603F
S214004E90FFF7A8FE06465020FFF7A4FE1649A88195
S214004EA08E818C604820AC60FFF79CFE0C61888287
S214004EB0FFF754FFFFF7A2FEFFF7DEFE0F4B0122BF
S214004EC0C3F880211A60FFF7E3FE002002B070BD31
S214004ED094280020DC2800200C290020CC28002064
S214004EE0D4280020D02800200081E00F9828002039
S214004EF09C280020754C0000B428002000E100E04B
S214004F000C4B984210D90C4B984210D90222012320
S214004F100A490B640A49D1F8003123F0807343EA4A
S214004F200263C1F80031704700221346F0E7012201
S214004F30FBE700BF0048E8010090D0030000C8432C
S214004F4000400E40044BD3F84421D20703D4D3F8D4
S214004F5040211042FBD1704700400E400A4A0B49E0
S214004F6090424B680BD90A4A90420AD903F0407225
S214004F704B6823F0407343EA02634B60704700229D
S214004F80F6E70122F4E700BF40787D0100000E40FE
S214004F90005A620270B5074C41F67136256C2664DD
S214004FA0FFF74AFCFFF7DAFFADB2B5421CBF00239D
S214004FB0236470BD00000E4070B5064C41F6713695
S214004FC0256C2664FFF7CAFFADB2B5421CBF0023AE
S214004FD0236470BD00000E4038B5C0F30323013BC8
S214004FE0092B16D8DFE803F02616151505191C152B
S214004FF01F23124C0023C0F3043513B11846FFF7E5
S214005000A1FF04F1424404F5801405EBC404A40097
S214005010216038BD0A4C0023EDE70A4C0123EAE77D
S214005020094C1023E7E7094C4FF48033E3E7084CBC
S2140050300023E0E7074C0023DDE700BFB0400E404A
S214005040C0400E40E0400E40E8400E40F0400E40AB
S21400505050410E4000400E40C0F30313013B092BA5
S2140050603FD8DFE803F0050B0F193E3E1F232C3513
S2140050701D4BD3F80001C0F3042070471A4BD3F839
S2140050801401F8E7184BD3F80001C0F30060431C86
S2140050900120984001387047134BD3F80C01C0F339
S2140050A008207047104BD3F80801F8E70F4B9842DA
S2140050B017D10D4BD3F8203103F00F03E8E70C4B64
S2140050C098420ED1084BD3F8283103F00303DFE7EC
S2140050D0084B984205D1044BD3F8300100F00F007E
S2140050E070470020704700BF00400E408006160044
S2140050F090071A00A009140008B5FFF7ADFF0130AD
S21400510008BD000000F00F000138072846D8DFE889
S21400511000F004101B45252F4537254BD3F8940087
S21400512000F00700831E022B3AD8C0F10600C0B27A
S21400513070471F4BD3F8803003F00703013B032B67
S21400514030D81C4AD05C7047194BD3F8843003F033
S2140051500703013B032B25D8174AF3E7144BD3F874
S214005160883003F00703013B032B1BD8134AE9E7FB
S2140051700F4B1B6F13F0010F0CBF07200920704761
S2140051800B4BD3F85C3103F03003202B0CD0302BC4
S2140051900CD0102B14BF012007207047002070474A
S2140051A0052070470120704704207047082070478C
S2140051B000400E40404F0300444F0300404F0300A2
S2140051C008B50146FFF79EFF1A4B994211D01A4BBD
S2140051D0994212D0194B994204D1194BD3F880004A
S2140051E000F007000138032821D8DFE800F00A0E97
S2140051F01612134BD3F88400F2E7114BD3F888004D
S214005200EEE7BDE80840FFF789BBBDE80840FFF7BA
S2140052108BBBBDE80840FFF784BBFFF711FB084BCC
S214005220D3F80031C3F300630133D84008BD002033
S214005230FCE700BF030020000500240002001E005B
S21400524000400E4000F47813B3F5A01F10B50446D6
S21400525054D01ED8B3F5202F6CD009D8B3F5003F34
S21400526041D0B3F5802F33D0002B63D0002010BD83
S214005270B3F5602F57D0B3F5801F6CD0B3F5402F31
S214005280F4D1FFF7DDFA3F4BD3F81431C3F3042310
S21400529025E0B3F5001F3BD00FD8B3F5D01F39D0AB
S2140052A0B3F5F01F25D0B3F5B01FDFD13648FFF7B2
S2140052B087FF344BD3F8203126E0B3F5481F3DD0A6
S2140052C0B3F5781F54D0B3F5101FCFD12F4811E097
S2140052D0FFF7B6FA2B4BD3F80C31C3F30823013390
S2140052E0B0FBF3F0C3E7FFF7ABFA264BD3F8083171
S2140052F0F3E72548BDE81040FFF762BF2348FFF7F5
S2140053005FFF204BD3F8303103F00F03D840AEE7F1
S2140053101F48EFE71E48FFF753FF1A4BD3F8283114
S21400532003F00303F2E71B48FFF7ECFE072812D052
S21400533009289BD1BDE81040FFF782BA1648FFF750
S214005340E1FE072807D0082808D004288ED1BDE83B
S2140053501040FFF7ABBA114B186888E7FFF770FAF2
S214005360084BD3F80031C3F3042303FB00007EE7A9
S214005370FFF766FA01462046FFF7BEFEB1FBF0F0E7
S21400538075E700BF00400E4002001E000500240026
S2140053900300200006000E00B8003200EC100020CB
S2140053A0013810B5032812D8DFE800F0022E1220CC
S2140053B0214AC1F30801D2F86838002BFBD11F4AF6
S2140053C0136A23F4FF7323F001031943116210BD1F
S2140053D0194A01F07F01D2F86038002BFBD1174A3A
S2140053E0136923F07F0319431161F0E7124A01F0B5
S2140053F07F01D2F86438002BFBD1104A936923F062
S2140054007F0319439161E2E70C4AD2F89030536A61
S21400541023F0300343F010035362146B084BC1F3C0
S214005420C31003300F2803EA040328BF0F201943D4
S21400543041EA00711163CAE70020C84300400E40ED
S21400544000F8FF0F104A536A13F0300F18D02029C7
S21400545013D0302914D000290C4B08BF4FF440035A
S214005460D2F8901033EA0101FAD15B0246BFD2F8B7
S214005470A000C0F38020012070474FF40003EFE740
S2140054804FF44003ECE700BF00400E40FF03E10787
S21400549002280AD129B1064B4FF48060C3F8A80051
S2140054A0596612B10220FFF7CDBF0120704700BF3A
S2140054B000400E400428F8B543D8304B304F13F860
S2140054C000C0304B1B5C002941D02F4C022834F81A
S2140054D0106037D17C6A14F0300F33D17C6AE40751
S2140054E005D57D6A25F0300545F010057D62244C13
S2140054F02666264C23449B001D68002DFCD002B374
S2140055006444A4002368002BFCD0022819D1C1B142
S2140055101B4D696A11F0010116D001222021FFF708
S214005520B7FFD5F89C70012200210220FFF7C2FFCA
S214005530C7F30A010220FFF733FF2E662368002B0D
S214005540FCD0F8BD0021D2E7FFF77CFFE9E7104961
S21400555031F810103966012101FA03F3D7F89010DC
S2140055601942FBD1002AECD00124054A04FA0CF4B7
S214005570D2F890302342FBD1E3E700BF484F030048
S21400558000400E404D4F0300524F03008004F210BF
S2140055905C4F030010B500F00F04631E072B42D8C3
S2140055A0DFE803F00F043D413B5C41674A4C01399C
S2140055B0092938D8DFE801F050383F373746373703
S2140055C03735023903292ED8DFE801F02402191FE7
S2140055D00120032401221146FFF76CFFFFF7DAFCD7
S2140055E03E4B5C67FFF750F90446FFF729F9FFF7D3
S2140055F087FC20460021BDE81040FFF7DDBC384898
S214005600FFF77EFC02200446E4E73548FFF778FC07
S2140056100320DFE700200424DCE7324CC7E7324CE7
S214005620C5E70423236010BD012211460020FFF7C2
S21400563041FF0223F6E7012211461046FFF73AFF24
S2140056400123EFE7FFF7FCF8FFF75AFC274B012290
S214005650C3F800260323E5E70023E3E7072904D081
S2140056600929E0D11D4B012201E01C4B00221A67DC
S214005670D9E701390729D6D801A353F821F000BF8E
S214005680D35600002756000027560000C5560000D7
S2140056902756000027560000B7560000A156000007
S2140056A003220E49D1F85C3123F0300343EA02139B
S2140056B0C1F85C31B7E7012211460420FFF7FAFE75
S2140056C00122EEE7012211460220FFF7F3FE022236
S2140056D0E7E70022E5E700BF80400E4000400E40AE
S2140056E00148E80188400E4084400E400010C84340
S2140056F010B504461120FFF705FD00210122022007
S214005700FFF7D8FE1B4A217C536A23F001030229C7
S21400571008BF43F001035362174B2178C3F8A01467
S214005720936AE17A23F007030B439362A188637AB6
S21400573043EAC123D362136BA07A217A03F07F6316
S2140057400343E08843EAC02343EAC11303310F2929
S21400575028BF0F2143EA01731363A37B617B1B0100
S21400576043EA0133E17B0B43217B43EA0143536366
S21400577010BD00BF00400E400000C843EFF310808D
S21400578072B6704700B962B67047602383F311881B
S2140057907047002383F311887047EFF3118060236E
S2140057A083F31188704780F31188704730B5D1E9CC
S2140057B00223D1E90054056004600260036030BD36
S2140057C030B50568046802680368C1E90054C1E999
S2140057D0022330BD7FB58B07044611D00B466D46BD
S2140057E001F11006186859682A4603C20833B34206
S2140057F01546F7D169462046FFF7D8FF04B070BDBE
S2140058000091009904B0BDE87040FFF7CFBF30B5F7
S2140058108B0785B00C4610D06946FFF7D1FF0D46C2
S214005820234604AC2A4603CAA242186059601546AD
S21400583003F10803F6D105B030BD0091009905B01C
S214005840BDE83040FFF7BCBF10B5FFF7AFFFBDE8BF
S21400585010401031FFF7AABF00F1424303F5801352
S214005860102A4FEA431305D101221A6000F588700A
S214005870FFF7EABF00221A602430FFF797BFF0B5A3
S2140058800B46990789B0054614461ED0082A6E4670
S21400589010D103F1100718685968324603C208335E
S2140058A0BB421646F7D1224669462846FFF7D4FF84
S2140058B009B0F0BD03F1200718685968324603C2E4
S2140058C00833BB421646F7D1EDE70093009909B0BE
S2140058D0BDE8F040FFF7C0BF38B520301546FFF7EB
S2140058E06FFF102D04D1BDE838401031FFF768BFB8
S2140058F038BD30B58B0789B00C4615461DD06946B5
S214005900FFF7EAFF082D0CD16A4604AD134603CB19
S214005910AB42206061601A4604F10804F6D109B073
S21400592030BD6B4608AD1A4603CAAA4220606160C5
S214005930134604F10804F6D1F1E70091009909B086
S214005940BDE83040FFF7C8BF19481A4BC26C1B8829
S214005950C2F303222833013202EB820103EB530326
S214005960B3FBF1F3C16C013B072B28BF072321F0E3
S214005970EE6141EA036343F48013C3640E4BB3F94C
S2140059800030002B12DB03F12801C1F34E030B4459
S214005990510801EB4202B3FBF2F2036D072A28BF5F
S2140059A0072223F0700343EA02120265704700BF25
S2140059B000300E404229002044290020084A13786F
S2140059C0013B012B0AD807490B6C03F00303012B9C
S2140059D002D1CB6FDB03FCD503231370704700BFE7
S2140059E04C29002000300E40054A064BD16C196049
S2140059F0D36C23F47F4343F4EE43D364FFF7A4BF92
S214005A0000300E404829002038B5114B114DD3F810
S214005A10804145F60E02C3F880212A6822F0AA02C9
S214005A20D205D20D1A660C4B1978052904F001042C
S214005A3002D01120FFF7AEFD2B68DB075EBF044BDC
S214005A4002221A661CB1024B0022C3F8802138BD20
S214005A5000400E403C2900204D29002008B5054B8B
S214005A60D3F89020044B11201A60FFF74BFB034B32
S214005A70187008BD00400E403C2900204D2900202B
S214005A80704770477047000010B5044608B1FFF72E
S214005A90E5FF104A136943F004031361FFF7A4FF00
S214005AA0FFF78CFFFFF7ECFFFFF7EBFF30BFFFF7CA
S214005AB0E9FF03F0F9FA084B1A68084BDA64FFF7B7
S214005AC043FF1CB1BDE81040FFF79EBFBDE8104085
S214005AD0FEF7DABE00ED00E04829002000300E4058
S214005AE010B5044608B1FFF7B9FF164BD3F880216E
S214005AF045F60E01D20748BF0022C3F880114FF4C6
S214005B002071196648BFC3F880210F4A136943F015
S214005B1004031361FFF768FFFFF750FFFFF7B0FFBE
S214005B2030BF03F0C1FA094B1A68094BDA64FFF775
S214005B300BFF1CB1BDE81040FFF766BFBDE8104084
S214005B40FEF7A2BE00400E4000ED00E0482900200F
S214005B5000300E40FFF782BFFFF756BF0378002BDA
S214005B60437870B50E4C14BF04260026002B8378AD
S214005B70A16914BF02250025002B037921F03F01FF
S214005B8043EA0103C17814BF08220022012908BF96
S214005B9043F0010333432B431343A36170BD00BF9F
S214005BA000300E401A4B4AF6E85210B5596B5A634D
S214005BB09A6FD407FCD41B6C13F003031EBF154A60
S214005BC00124C2F8B44A834204D110B9114BC3F879
S214005BD0B40A10BD23B9012802BF0F4B02221A7067
S214005BE00B4B9A6FD207FCD41A6C22F003020243C6
S214005BF01A649A6F12F00102FBD10038054C18BFE8
S214005C0001200129C4F8B40A08BF5A63E1E700BFBF
S214005C1000300E400000C6434C290020A0F5E1638A
S214005C20B3F5966F2DE9F04303D900210846BDE889
S214005C30F083B0F5E16F634B40F0B880D3F81852AC
S214005C404FF41678C5F307294FF4966CEDB25E4B09
S214005C50DF6CB0F5E16618BF0126C7F3017746EAA8
S214005C600724B4F5007F71D04ED8B4F5807F69D094
S214005C703FD8002C62D0012C55D000242346A9EB37
S214005C80050EA0EB0C0C0CFB0EFEBEFBF8FE7544DE
S214005C904D45CAD8A4EB030E0CFB0EFCBCFBF8FC6F
S214005CA06344A3424FF0000CBFD892B1DFF818E16E
S214005CB0DEF85C4024F4FE4424F00204B0F5E16F04
S214005CC044EA052418BF4FF0020C44EA0C04CEF850
S214005CD05C40002968D03B4AD2F80041E4B2032C6D
S214005CE03CD8B0F5E16FD2F82C223FD0C2F30722A1
S214005CF03DE040F201139C42BFD1324BD3F8243230
S214005D001C0EC3F30743BAE7B4F5407F22D040F237
S214005D1001339C420ED040F201239C42ADD1294B68
S214005D20D3F8283202E0274BD3F82432C3F30724F3
S214005D30DBB2A4E7234BD3F82832E1E7214BD3F8B4
S214005D401C32F3E71F4BD3F81C32D9E71D4BD3F8B0
S214005D502032EBE71B4BD3F82032D1E7022FD2F8E4
S214005D6030221CD0032F1DD0012FBFD0D2B2120379
S214005D7012F4702F7FF459AF134CE06E20F470408D
S214005D800243E266626E22F4FF72E72B22F0010203
S214005D9028BFE723324342EA4303636646E7C2F37B
S214005DA00742E4E7120EE2E701213FE7D3F8185274
S214005DB04FF496684FEA15694FF4E16CC5F3074552
S214005DC045E700BF0081E00F00300E40184B1A6F09
S214005DD0D96C11F0010F02F0060213D092B113280D
S214005DE021D9143813288CBF102308231048013BF0
S214005DF0C26C190322F47F4241EA03231343C364AF
S214005E00FFF7A2BDD96C01F00101114304D10928A6
S214005E1009D90A380928E6E7DB6C13F00103E5D058
S214005E201AB92728DFE70423E0E70023DEE700BFF0
S214005E3000300E40064A074BD3F88039136F23F024
S214005E4007031843044B10671888FFF7BFBF00BF4F
S214005E5000300E400000C643402900204E4B37B5A8
S214005E6002229A639B6B03F00F039342044603D00F
S214005E700025284603B030BD484BD3F81C3201330A
S214005E8012D0474BD96B9A6B1160596C1A6C116023
S214005E90D96C9A6C1160596D1A6D1160D96D9A6D36
S214005EA011605A6E1B6E1A60E388A188B4F90C0064
S214005EB04A2B65D9B3F5FA7F64D340F6C3129342F2
S214005EC094BF4FF000524FF04052334DEB6C23F02E
S214005ED0405323F001030028A8BF43F001031343F7
S214005EE0EB64304B1980EB6E43F08073EB662E4B01
S214005EF0D3F8800900B10420FFF79CFF2B6E23F037
S214005F00C0432B66EB6C43F0060301A8EB6400F07D
S214005F109DFA9DF80500012811D19DF80430022B4A
S214005F200DD822490B7853B96B6C214A43F0010314
S214005F306B642B6E1A401F4B13432B6608701E4B68
S214005F40218919801D4BB4F90C20A0881A80FFF710
S214005F503DFFA37BCBB1012B1BD0012260881146ED
S214005F60FFF75CFE0546002882D0A37A0E4A003B67
S214005F7018BF0123C2F894376078FFF713FE78E75E
S214005F800022A2E74FF080529FE7034B0C4A9A6527
S214005F90E3E7014B0B4AFAE700300E400081E00FC2
S214005FA00080E00F402900200000C6434C29002056
S214005FB0000F0EF0B4C0400B4229002044290020F8
S214005FC077402057372110B7184BD3F89021002878
S214005FD010B514BF02240024012A06BF4AF6E85171
S214005FE0C3F8901100220228D3F864010CBF20F0F9
S214005FF0740040F07400C3F864010C4BD3F89C01A5
S21400600040F00800C3F89C010948C16B21F44061C8
S21400601041EA8421C163D3F89C1121F00801C3F83A
S2140060209C1112B10022C3F8902110BD00300E4022
S21400603000400E40144A1548D2F8B030C3F3074368
S21400604007EE103AD2F80431DBB207EE903AB8EE1B
S214006050E76ADFED0F7AC6EE276ADFED0E7A76EE98
S214006060A76A026A016AD2B2C9B28A42F9D19B1AF9
S21400607007EE903AF8EEE77AB8EEC77A07EEA67A19
S21400608017EE100A704700BF0081E00F00300E4088
S2140060900000C842A8C68B3E70B505460E4614469C
S2140060A0FFF76CFB296881EA040202EA06044C400A
S2140060B02C60BDE87040FFF765BB0000044AD2F8CC
S2140060C0443423F003031843C2F84404704700BF67
S2140060D000A0004000EB4000F8B50D461F46040146
S2140060E016463AB1164801238B402044CFB100F142
S2140060F0C0600360072D4FF00F0115D8AB001148A4
S21400610006FA03F299402044FFF7C6FF46B90C4A48
S214006110012101FA05F5224477B102F1C06215604B
S214006120F8BD00F18060E4E7A5F108039B0006488F
S21400613006FA03F29940E6E702F18062EFE700BF55
S2140061400CA0004004A0004008A000400F4A70B514
S214006150002308258B4201D1002070BD50F8234053
S21400616094610B4CD5600133D669F60705D514B992
S2140061706FF00200F1E7013CF6E7002CF8D0D46996
S214006180A407E7D56FF00100E7E700BF00000E4068
S21400619080969800044B41F671321A649A6822F091
S2140061A001029A60704700BF00000E40034B9A68D9
S2140061B022F001029A6000221A64704700000E4026
S2140061C0094A0A4BD969C90705D512B96FF002000A
S2140061D07047013AF6E7002AF8D001221861DA6023
S2140061E0D86940F3800070478096980000000E4003
S2140061F009B1FFF7ABBF084670470000224B2DE9F8
S214006200F0470D4641F671311F6C1964996841F0EC
S21400621001010646BFB299604FEA9208AA464FF0BF
S2140062200009C1450DD3002032682B689A420ED073
S2140062303046FFF7C5FF50B901212846FFF786FF15
S21400624005E006EB89042046FFF7BAFF48B10E4B7F
S2140062509A6822F001029A600FB100221A64BDE823
S214006260F087C4F30A04C4F50064A408A8EB090187
S214006270A14228BF21465046FFF7BAFF0028D3D1D7
S21400628089440AEB810ACCE700000E40214B41F618
S21400629071311A6C1964996841F001019960012105
S2140062A01861D960D969490792B209D5996821F071
S2140062B0010199600AB100221A644FF0FF3070475E
S2140062C00221D9601449D869C00700D569B9D869D0
S2140062D010F002000BD0996821F0010199600AB114
S2140062E000221A646FF0010070470139EBE741B9EC
S2140062F0986820F00100986002B119646FF00200FF
S2140063007047996821F0010199600AB118647047D6
S2140063101046704700000E4080969800FFF76EBF4C
S214006320014B01229A60704700500E40194BF0B5A1
S21400633000215D68184C194E194F0846D6F8E8C17A
S214006340626823681CF0040F0BD1B3F5006F06D00B
S2140063501DD8B3F5007F02D0B3F5806F01D142F4AB
S2140063608072D7F888C01CF4807F18BF22F01C0209
S2140063702B4202D02A4208BF18430131092904F1F2
S2140063800804DBD1C30348BF20F01C00F0BDB3F502
S214006390803FE3E700500E40684F03000040E00FE8
S2140063A000300E408B784A789B0143EA82030A78D5
S2140063B01343CA7843EA02130A7943EAC2234A79A6
S2140063C043EA02338A79043043EA42430001014A31
S2140063D01350704700200440014B1860704700BF00
S2140063E000008442427801790378002A827870B5EA
S2140063F014BF04260026002AC27814BF10250025E4
S214006400002A42794FEA023242EA012242EA0302B5
S214006410837914BF20240024002BC37942EA034367
S21400642043EA0603027A43EA050314BF4FF4004129
S21400643000212343002A14BF4FF4003200220B43EE
S2140064401343014A136070BD002004400D4AD2F881
S214006450E430D2F8E0109B0003F03C03C1F3811156
S2140064600B438370D2F8E03003F03F034370D2F85A
S214006470E830D2F8EC2003F0F003C2F30312134323
S2140064800370704700FF0FE070B5054616461C46C1
S21400649019B91448FEF7D6FE0146402C1BD003D887
S2140064A0DCB1202C1BD070BD602CFCD1042303FB78
S2140064B006F2560806EB4113B3FBF2F30A4A203BFA
S2140064C002EAC3032A6822F060022A602A6814439C
S2140064D02C606B61E7E70623E9E71023E7E708236C
S2140064E0E5E700BF40410500F8FF7F00CB435B00B7
S2140064F003F00A03C360C1607047000040F6AA6359
S214006500C36041F205020023036042600B4A8360C9
S2140065104361C36482640A4A03669042436702F595
S21400652080628367C36701D0904200D10365002371
S2140065309042836508BFC365704700BFF9FF01003E
S2140065400000014038B5FFF7D9FF8B7C04460D46A6
S2140065501BB1036843F080430360EB7C1BB12B7DCB
S21400656043F08003A3652A8A6B7B1343EA891343AF
S21400657063602B7BD5E901122046FFF785FF6B7D14
S2140065801BB1236843F480332360AB7D1BB12368C3
S21400659043F400432360EB7D2A7E1B07120502F4BA
S2140065A0E00203F0E04313432366636F23F03003F7
S2140065B06367626F6B7E134363672B78E36038BD57
S2140065C003691B06FCD5C069C0B2704703695B0649
S2140065D0FCD5416370470368D90707D583689A07D7
S2140065E004D48368DB07FCD4012343607047002093
S2140065F070470F2070470F207047002070470F200D
S2140066007047002070470F207047002070470F200B
S2140066107047002814BF0F200020704700207047E6
S2140066200020704738B504460AF0FCFA0FCC044D3B
S2140066300FC594E80F0085E80F00002038BD00BFA6
S2140066405029002047F6FF739A42F0B569D0022918
S21400665069D8364B03EBC105CF00A87813F8311084
S214006660012838BF01200129044613D1EB781B1AF4
S2140066700020984202D3E018C0B2F0BD191AA3EB6E
S21400668051016E6836F911609642CCBF01F1FF33B6
S2140066900846EEE768680028EFD0B0F9001091428F
S2140066A004DBB0F902109142B8BF114682883B4421
S2140066B0FF2A08BFB0F906205F7807BFB0F9086068
S2140066C001250025C82207F1FF3318BF2826521AD5
S2140066D092FBF6F22A44934228BF134600EBC3050A
S2140066E04FF47A7EAE68EA8811FB02621E460133DA
S2140066F022EAE2729F4202F5FA72AC46B2FBFEF262
S21400670005D9BCF80CC0944505F10805EAD200EBA3
S214006710C6008088904228BF1046A04238BF204658
S214006720AAE7FF20A9E70020A7E700BF502900201E
S2140067300229F0B55FD8314B13F83100012816D185
S21400674003EBC1018C78C878012C234638BF01239F
S214006750904294BFC3EB0003C3EB0203DBB2001B03
S2140067604A688342C8BF002332F91300F0BD002AEE
S2140067703FD003EBC1014B68002B3CD08878904299
S21400678002D3B3F90200F1E7CC78B3F900009442E3
S214006790ECD94C789988A1F1FF06013C714203F1CF
S2140067A00405E4B2714103F10C071FFA82FCCEB275
S2140067B0B44216D805EBC1014FF47A75B1F9024020
S2140067C049686A43521A04EBD47102EB610292FBE9
S2140067D0F4F29042CADBB3F902009042C6DC10B273
S2140067E0C4E737F831E0E64501F10106E2D3314669
S2140067F0DDE70348BAE70348B8E700BF50290020A2
S2140068000CFEFFFF0080FFFF08B50448FFF70AFFF5
S214006810BDE8084001200AF041BA00BFB04F0300AF
S21400682000207047002814BF0F200020704701206A
S214006830704701207047012814BF0F2000207047C2
S2140068400F2070477FB5094B09490022CDE9012387
S2140068504FF08373CDE903134FF0FF300D2301A9EA
S21400686005930AF06FFA07B05DF804FB006A18009B
S21400687006010C007FB5094B6A4603F11006154663
S21400688018685968144603C40833B3422246F7D141
S2140068902846FFF7E3FA002004B070BD68500300F6
S2140068A013B50024684600948DF80440FFF756F9A7
S2140068B0204602B010BD000070B5164B86B001AA87
S2140068C003F11006154618685968144603C40833C1
S2140068D0B3422246F7D11B8823800F4BD3F8B4204F
S2140068E012030ED4D3F8B830C3F308030B48ADF840
S2140068F00A30FDF7E1FF2846FEF7FAFE002006B054
S21400690070BD074B1B884FF6FF72934208BF4FF4CB
S214006910B473EBE7785003000081E00F00F0490203
S2140069200001E00F10B50C480C4C6FF00402A021DB
S21400693012F0800FD3B21BBF03F00F03043BA31863
S2140069401B1802F101020CBF83F800131976222AE5
S214006950EED1002010BD00BF00ED00E000E100E039
S21400696010B50446FEF70AFF024B1C60FEF70AFF4E
S214006970002010BD7029002010B5FEF7FFFE034B67
S2140069801C68FEF7FFFE204610BD00BF70290020E1
S21400699007B530B9CDE90012FFF7EEFFDDE90012CA
S2140069A030B1436823B1006803B05DF804EB1847C4
S2140069B0232003B05DF804FB30B51C4685B058B9FB
S2140069C0CDE90012FFF7D8FFDDE9001204B903ACE9
S2140069D020B9232005B030BD03B903AC8568002D6F
S2140069E0F7D023460068A847F4E707B501228DF8DC
S2140069F007100DF10701FFF7CBFF03B05DF804FBAE
S214006A000B4601461846FFF7F0BF00230122FFF7AA
S214006A10D3BF00000EB40FB505AB53F8042B039399
S214006A2018B90192FFF7A8FF019A039B0146064892
S214006A3007F0BEFA0028D4BF3720002004B05DF867
S214006A4004EB03B0704700BF016A000010B500F009
S214006A5029F80448044B436000248460FFF780FF55
S214006A60204610BD782900206D6A000007B5044B4B
S214006A700093044B1B8800F02BF803B05DF804FB72
S214006A8074290020F0100020014B18800020704769
S214006A90F01000204FF06042D2F8803E1B02FBD47C
S214006AA07047000008B5074B1A6842B90122082053
S214006AB01A60FDF7C9FF0449044802F097F9002060
S214006AC008BD00BF8C290020081100208429002062
S214006AD02DE9F04702F104080F4615461E4602F15E
S214006AE009094FEA132A00245FFA88F84C4502D3B6
S214006AF00020BDE8F0871CB3012C05D141460820D4
S214006B00FDF7AEFF0134F1E7022C1BD0032C01D1B8
S214006B10F1B2F4E7042C17D0052C04D1089B13F827
S214006B20011B0893EBE7AB1DA3420FD0EB1DA3425E
S214006B300CD005F10803A3420AD0BB1F195DDEE79F
S214006B405B21DCE7D121DAE75146D8E75A21D6E7C0
S214006B505D21D4E790F82A3001223BB190F82E3020
S214006B60022B03D180F82E20184670471346FBE709
S214006B7080F82410704790F82400704790F82B0097
S214006B8070470000002808DB0123420900F01F00C0
S214006B9003FA00F0014B43F82200704700E100E0E2
S214006BA0002809DB4309012200F01F0002FA00F06A
S214006BB06033024A42F82300704700BF00E100E05D
S214006BC0F8B590F82B3004460D4681B173B990F8AD
S214006BD02C60FEF7D3FD01210546304602F082F810
S214006BE02846FEF7CFFD012384F82B30F8BD002B96
S214006BF0FCD090F82C70FEF7C1FD294606463846B4
S214006C0002F070F83046FEF7BDFD84F82B50EDE735
S214006C1070B504460568FFF7AFFE844202D1002037
S214006C20FFF79EFE95F92800FFF7BAFF95F9283082
S214006C30002B0DDB5A09012103F01F0301FA03F3B1
S214006C402032144941F82230BFF34F8FBFF36F8FC5
S214006C5095F92900FFF7A4FF95F92930002B0DDBE5
S214006C605A09012103F01F0301FA03F320320949F0
S214006C7041F82230BFF34F8FBFF36F8F0023C4E974
S214006C800033C4E90433A3602846EB68BDE87040CF
S214006C90184700BF00E100E02DE9F047044616461D
S214006CA090F824800D46FEF778FD94F82A200346D7
S214006CB09AB1FEF778FD94F82D90FEF75FFD01215E
S214006CC00746484602F00EF83846FEF75BFDFEF72C
S214006CD064FD0022034684F82A201846FEF763FD6A
S214006CE02E44B8F1000F23D1AE4205D1636820468A
S214006CF00121BDE8F047184794F82630002BF3D062
S214006D00236815F8011B204698470028ECD0BDE8FC
S214006D10F08794F826305BB12B780A2B03D12368D2
S214006D200D2120469847236815F8011B20469847F2
S214006D30AE42EED1DAE72DE9F7434FF000090446FC
S214006D4090461E46C3F800904F1E3368434505D252
S214006D50FEF723FDA269C2B9FEF725FD94F8273099
S214006D605BB9112301220DF1070120468DF807308B
S214006D70FFF792FF012384F827303368002B0CBFFF
S214006D801B20002003B0BDE8F083E16922698A5C1D
S214006D9007F8012F2569226A01359542A26908BFC6
S214006DA04D46013AA2612561FEF7FDFCA368204628
S214006DB09847336801333360C7E708B5FFF76CFFC1
S214006DC0002008BDF8B51F46536806460C46154613
S214006DD0002B5BD09368002B5AD03022002120462F
S214006DE02DF016FF6B68E361AB6823622B7B84F89B
S214006DF02430AB7B84F8253040F20113E384069BF5
S214006E006360079BA360089B2760E3602B7884F889
S214006E1028306B7884F829301E4B73601E4BB360A5
S214006E201E4B33611E4B73611E4BF3601E4B336269
S214006E301E4A3460012384F82E30B2611C4AF26187
S214006E409DF8282084F82D209DF8242084F82C20F6
S214006E50002784F82A30697B84F82B702046FFF7D9
S214006E60AFFE95F90100FFF79BFE95F90100FFF7CD
S214006E7089FE95F90000FFF793FE95F90000FFF7ED
S214006E8081FE3046FFF76CFD3846F8BD2220FCE751
S214006E902120FAE7BB6D0000376D0000716B000023
S214006EA0776B0000116C0000556B0000C16B000092
S214006EB07D6B000010B50446FEF76FFCA269236ADE
S214006EC09A4203D2FEF76FFC012010BDFEF76BFC62
S214006ED00020FAE737B504460D46AFF30080FEF70C
S214006EE05CFC94F8253002466BB1132D07D10023C5
S214006EF084F8263003B0BDE83040FEF754BC112DB0
S214006F0001D10123F4E76369E169CD54A16963699E
S214006F100131A161216A01338B42636104BF002302
S214006F2063611046FEF73FFC0423A26984F82E3006
S214006F30236A9A420BD1132301220DF10701204642
S214006F408DF80730FFF7A8FE002384F8273003B03B
S214006F5030BD90F82A3073B5044603F0FF01A3B99C
S214006F60436801919847012384F82A3094F82D60ED
S214006F70FEF704FC01990546304601F0B3FE2846AC
S214006F80FEF700FC022384F82E3002B070BD026BC0
S214006F90D36C43F00403D3647047026B10B5044609
S214006FA013695906FCD500231A4694F8391094F84C
S214006FB03800FFF78FF800231A4694F83B1094F831
S214006FC03A00FFF787F894F84030DA0707D5002331
S214006FD094F83D1094F83C001A46FFF77BF894F8B6
S214006FE040309B0707D5002394F83F1094F83E00E6
S214006FF01A46FFF76FF8206B0021FFF777FA606BF1
S2140070000021FDF7E9FF002010BD08B5006BFFF773
S214007010DDFA002008BD036BDA6C19B142F00102FC
S214007020DA64704722F00102DA6401229A6470473B
S2140070302DE9F04186B01C46524B0C9D0293524BF4
S21400704001930126514B0093CDE90366504B9046C1
S2140070500A462946FFF7B6FE0746002856D123689B
S2140070602B6363686B63637A85F83930237A85F817
S2140070703830E37A85F83B30A37A85F83A30637B7C
S21400708085F83D30237B85F83C30E37B85F83F3040
S214007090A37B85F83E303F483146FDF79DFF3E48CE
S2140070A03146FDF799FF617A207A33460422FFF7CE
S2140070B011F833460222E17AA07AFFF70BF86068EF
S2140070C03146FDF789FF88F8007041462068FFF7D3
S2140070D039FA2268536F43F003035367936F617C5A
S2140070E023F4F85323F01F030B43217C43EA0123C8
S2140070F003219367516785F8407098F81930202B64
S2140071002BD007D803B3102B09D02327384606B058
S214007110BDE8F081302BF8D185F8401002E085F804
S21400712040603E4600230222617B207BFEF7D2FFB2
S2140071302368A27CDA675A6E42F004025A665A6FD7
S21400714042F010025A675EB92068C36C43F004032D
S214007150C3640521FFF7CAF9D8E7022385F8403053
S214007160E17BA07B00230422FEF7B4FF2368E17CCA
S214007170DA6F42EA0122DA675A6F42F020025A6753
S214007180E2E700BF9B6F00008F6F000017700000E3
S2140071900B7000004041050000250A00036B1B69C8
S2140071A0190610B5044609D5FFF784FEA0B1206B7A
S2140071B0FFF706FA01462046FFF78CFE236B1A6C93
S2140071C0D2070FD501229A641B699B060AD5204672
S2140071D0BDE81040FFF7BDBE226BD36C23F004035E
S2140071E0D364EBE710BD000010B51C46044B1868CE
S2140071F006F05EFF002820600CBF1B20002010BD9C
S2140072001011002007B5044B00931123FFF760FC14
S21400721003B05DF804FB00BFB029002010B5FFF7EF
S21400722041FC0F4C206006F083FF20220D490E48DB
S214007230012306F04BFF0D4B18600D4B6360204694
S2140072400C4BA360FFF78CFBFEF798FA012104466F
S214007250084601F047FD2046FEF794FA002010BDD0
S214007260B42900209029002090500300101100201F
S21400727005720000E971000000F0FD03112B05D037
S214007280182B03D0A0F17D03012B07D8044B012255
S2140072901A70044B80F0200018707D20704700BFE5
S2140072A0D0290020D1290020F8B5214B0E461446DF
S2140072B000B3204A2049107000221A701F4B22701B
S2140072C00A704FF6FF721A801B4D2B78EBB91B4FD6
S2140072D03046398800F0F6FA164A38801378013BB3
S2140072E0DBB213706BB901232B703046BDE8F84053
S2140072F0FFF7C2BF1A78002AE6D01870104B18782D
S214007300F8BD237801332370EFE7012B05D1022364
S2140073102B700A4B1888000AE8E7022B04D10323D7
S2140073202B70064B1878E1E7FF2323707E20E7E7F3
S214007330D0290020CC290020D2290020CE290020E8
S214007340D12900202DE9F047394E33788846174674
S2140073505BB9384A1370384A1370384A1370384A83
S2140073601370384B4FF6FF721A807D2850D02DD8F8
S214007370182851D01A2853D0314B2E4D1C78DFF8E0
S214007380BC9000221A702B78DF2B9CBF01332B7029
S2140073902B78022B84EA000412D9DFF8A8A099F80B
S2140073A00000BAF8001000F08DFA2B78AAF800005A
S2140073B0DF2B9FBF99F8002088F80020023B3B7027
S2140073C01D4B1A7889F800201C7006E07E28D3D161
S2140073D0184B1B781BB91A4A1370202011E0FF2B9C
S2140073E020D0184A1188154A1078134A127802EBF2
S2140073F00022914218D1022B18D9DF2B8CBF7A209D
S2140074000020A0F12002534253413370BDE8F087BC
S2140074100B4B20201870F4E7064BFF221A70DCE7AF
S2140074207420EEE77720ECE77620EAE77920E8E7B5
S214007430C4290020CB290020C6290020C729002007
S214007440CA290020C829002000280A4408BF422074
S214007450914200D1704711F8013B434001F8013CCE
S21400746000F00103C0F34700002BF1D080F0B80015
S214007470EEE7000008B500F099F8044B08B1188054
S21400748008BD4FF6FF721A80FAE700BFC229002037
S21400749010B5074C208850B100F088F82388C01A31
S2140074A0044B1B8800B29842B4BF0020012010BDD8
S2140074B0C2290020C02900204FF07E622DE9F0414D
S2140074C0B2F84C70B2F84A60164DDFF85C802C8833
S2140074D04FF6FF739F4208BF4FF448679E4208BFAF
S2140074E04FF4C87650B164002C802B88BB4215D967
S2140074F02F800023A8F80030BDE8F081B8F80030EF
S214007500002BF2D000F052F8B8F80030C01AC4EBE6
S214007510C40480B204EB8004E408E5E7B34238BF55
S2140075202E80E6E7C0290020C229002008B500F01A
S2140075303DF84FF07E634FF6FF72B3F85A30934231
S21400754008BF4FF47A73184410F47F6F034BC0F3F0
S214007550071208BFFF221A7008BD00BFC529002009
S21400756010B5084C237843B100F020F82378C3EB1D
S214007570101003065CBF002323702078B0FA80F05A
S214007580400910BDC529002007B501F0DDFF6A4699
S21400759002F040F818B104484E2100F06DFADDE91B
S2140075A0000103B05DF804FBA650030008B5FFF722
S2140075B0EBFF80B208BD08B5FFF7E6FF08BD08B5CB
S2140075C0FFF7F9FFFA23B0FBF3F080B208BD012005
S2140075D0704704207047000008B501F0B5FE18B1EA
S2140075E00248762100F048FA002008BDA6500300A5
S2140075F008B500F077F90E4A536A43F4E023536265
S214007600EFF308830B4A043B4FF0CD3193420BD285
S214007610FDF708FC084B01221A61FFF7DDFFBDE805
S21400762008400648FEF7FEBF43F80419EEE700BF21
S21400763000ED00E00000002000300E40B04F0300D8
S214007640044BD3F8B030DB0702D50348FEF7C3BFC0
S214007650704700BF00400E400020054040F2016029
S21400766000F0C6B97047704708B510B1FFF7FAFFCB
S21400767008BDFFF7F8FFFBE7704770477047032029
S21400768000F095BB0120704707B504220DEB020100
S214007690002008F079FF042804D005484FF4E8716C
S2140076A000F0EAF9019800F02BFB03B05DF804FB4C
S2140076B0A6500300102870B522D00DD8032801D993
S2140076C0002070BD013802281AD8DFE800F0021743
S2140076D02F000023022215E02038C3B2032BEFD878
S2140076E00328EDD801A353F820F000BFD37600009E
S2140076F0FD7600002D770000297700000123E9E7DA
S214007700002303220B490C4D0C680021C8B28442AA
S214007710D6D955F8200028B1067A964202D1467A84
S2140077209E42CED00131F1E70323D3E702231A4667
S214007730E8E700BF944E03009810002007B50191BB
S214007740FFF7B8FF019918B9012003B05DF804FBF4
S21400775000680028F8D0FFF758F90028F5D01B2855
S214007760F2D12620F1E707B50191FFF7A3FF50B14C
S214007770006840B10199FFF738F9003818BF0120BA
S21400778003B05DF804FB0120FAE7000010B5FFF730
S21400779091FF044630B1037A022B03D103680BB184
S2140077A01B6823B907484FF4277100F065F9236872
S2140077B01B681B6B186900F44830A0F5005358424C
S2140077C0584110BDA650030010B5052104461120EF
S2140077D0FDF7E0FE002211460220FDF76BFE0C4A84
S2140077E00C48136B23F47F2323F400631363116B9D
S2140077F000EAC42008431063012211460220FDF768
S21400780059FEBDE8104004211120FDF7C3BE00BF9D
S21400781000400E4000F80F00024B186BC0F3C82063
S214007820704700BF00400E4008B50D4B1B68198A14
S21400783040F6A73291420AD11B8B1B0A012B0CD1B2
S21400784001280AD840F2022000F0D2F805E0002312
S214007850D3F828389B69DB02F2D4012008BD00BFAC
S214007860D42900200E4B1B68198A40F6A732914295
S21400787006D11B8B1B0A012B10D04FF6FF707047EA
S2140078800023D3F828389B68C3F30340C3F303628E
S214007890000240EA0230DBB21843704700F002B83C
S2140078A0D4290020064B1B68198A40F6A73291425D
S2140078B017BF0023588BD3F828385889704700BF65
S2140078C0D429002049BA89B24840C0F30313434084
S2140078D0180380B258405B0103F4FF5358407047CA
S2140078E042DE704710B5FEF721FD0446FEF718FD90
S2140078F00022012101FA02F3234018D0204B21492F
S21400790033F81230062B18D040F20722934211D1DA
S2140079104FF000524FF20F00548884420AD110886C
S214007920984207D14CF23C335380088010BD013298
S214007930112ADFD1134A138012E04FF000534FF2A2
S2140079400F025888904218D11B88B3F5406F28BFA5
S2140079504FF4C0630B804FF000534CF23C325A8019
S214007960084B1A8840F201739A4201BF064A074B39
S214007970D2E90001C3E90001D8E74FF4C063E9E7A4
S21400798070510300E029002090100020D829002024
S214007990164B1B881A0A13F0FF03104604D1012A5F
S2140079A022D140F080007047072AFAD801A353F886
S2140079B022F000BFEB790000A3790000D579000023
S2140079C0D9790000D9790000DD790000E17900005E
S2140079D0E5790000092070470220704703207047B1
S2140079E00B2070470620704718467047E029002095
S2140079F010B50446FDF7C9FE194B4AF6E8529A60E0
S214007A005A639B6B03F00F03022B14D1154BD3F86C
S214007A10C8305B0742BF144B01221A64104B1B6C24
S214007A2003F00303013B012B9FBF104B0022C3F85A
S214007A30702CC3F8802E4FF000534FF20F021C80BC
S214007A405A80BFF35F8FBFF34F8F0949094BCA684F
S214007A5002F4E0621343CB60BFF34F8F00BFFDE735
S214007A6000300E4000400E40004008400000C64374
S214007A7000ED00E00400FA0538B504460D4617F0A0
S214007A8053F9FFF7DDFDFDF780FE06492B4622463B
S214007A900020FEF7BFFF29462046BDE83840FFF726
S214007AA01FBF00BF5C5103006A4A6B4B2DE9F041D3
S214007AB055685D65516A99656849694CD1F8000258
S214007AC0D865D1F804121966916A5966D16A996622
S214007AD0116BD966516B1967D26B586B5A67D3E92D
S214007AE00E2110F0040F08BF11465E4A1A650020EA
S214007AF09142D8645DD301F12000A04259D888692C
S214007B001864C5F30805CE695E64062D55D1564D3A
S214007B10A84252D3554DA8424FD205884DF6426032
S214007B2085424AD11868C3F890005868C3F8940094
S214007B3040F20170A242154605D22E68B6F1CD3F3E
S214007B4002F10402F6D00022C3E91E22C3E9202275
S214007B50C3E92222641B424EDFF80CC1DFF80CE1B9
S214007B609C648E422CD8D3E91EC7D3E92065D3E99E
S214007B7022414FF0000E013AD2B2FF2A3CD1BEF1AC
S214007B80000F05D0C3E91EC7C3E92065C3E922413B
S214007B90B3F85430C3F30803DA1E0F2A50D8DFE8D0
S214007BA002F0563542454F4F4F4F4F4C4F4F4F4FB9
S214007BB04F390021C3E910112A494FF42060B9E774
S214007BC056F8044D6445CCD37445CAD2E507C8D5EB
S214007BD0274F062557F8048BA045C2D0013D15F067
S214007BE0FF05F7D10AB9052201E0013AD2B202F147
S214007BF01E0543F82540B4E7E0464FF0010EBC46AC
S214007C0037462E4625460C464146B4E740F6022047
S214007C10BDE8F081174BDB6913F0020F40F2025308
S214007C2018BF1846F4E740F60320F1E740F60423B1
S214007C30B0F5206F08BF1846EAE740F60520E7E7EC
S214007C40013B40F60722302B98BF1046E0E740F68F
S214007C500120DDE700ED00E00010002000E100E07C
S214007C600010002000000020C84200007A4E0300EA
S214007C70781000200020054000F00CB800F00AB88C
S214007C8000F008B800F006B800F004B800F002B83B
S214007C9000F000B872B61EF0080F09D01EF0040FF0
S214007CA00DD0DFF850E0AEE8FF1F6FF002000CE0EA
S214007CB0DFF840E0AEE8FF1F6FF00E0005E0DFF8EB
S214007CC034E0AEE8FF1F6FF006006946EFF3098266
S214007CD08EE8070086460848084C854501D3A5452A
S214007CE001D384F30888FFF7DFFE84F30888FFF7E4
S214007CF07FFE000000100020400000200010002042
S214007D0082B2074B42B11A80000C064B0ABF4FF6F0
S214007D10CE2218801A8070474BF6EF62F3E700BF5A
S214007D20281100202A1100200B4BB3F900201888D8
S214007D30002AB8BF80F0620042001A80074AB2F9F3
S214007D40001013880029BCBF83F4805383F00B0314
S214007D505900118058407047281100202A11002031
S214007D6008B501F037FE60B10A4B0344072B0DD867
S214007D70072B0BD8DFE803F004060A080A0A0A0CE9
S214007D80C22008BDC320FCE7C420FAE7C520F8E7F8
S214007D90C120F6E7FF1FFF0F10B404460846114641
S214007DA022465DF8044B01F0F5BE01F035BF01F048
S214007DB075BF10B404460846114622465DF8044BCB
S214007DC001F09EBF02F072B810B5094A137813F09E
S214007DD002040CD10749084809780078884206D082
S214007DE006480480064863F07D030170137010BDDA
S214007DF0E5290020E2290020EA290020C2290020E7
S214007E00E7290020054B064A19881288914202BFCE
S214007E10044A0121117000221A807047F0290020C0
S214007E20F2290020F429002007B50346009102221B
S214007E3003493D200EF0C3F903B05DF804FB00BF14
S214007E409F51030007B5064B06491B780093022294
S214007E5081233D200EF0B3F903B05DF804FB00BFAC
S214007E60EE2900209F51030038B50C4D0C4C2A78A3
S214007E7023789A4200D138BD0A48002119F0CCFC7C
S214007E80094B1B88834202BF084B01221A702378D5
S214007E90013303F007032370E9E700BFE22900205F
S214007EA0E8290020EC290020F2290020F4290020EF
S214007EB0074B93F90030002B08DB064A137803F0D3
S214007EC04101402904BF43F005031370704700BF0B
S214007ED0EE290020E529002007B5064A0649282392
S214007EE0CDE900323D20702302220EF068F903B07F
S214007EF05DF804FB3E00E00F98510300702807B5BC
S214007F0004D103B05DF804EBFFF7E6BF074B084962
S214007F101B780193074B1B780093022203463D20F3
S214007F200EF04DF903B05DF804FB00BFF529002004
S214007F309E510300EE290020F8B5002706463D4670
S214007F40304619F009FA854200D3F8BD304619F0DC
S214007F5003FA441BE4B2202C2946304628BF2024CE
S214007F6019F058FD224601463846FFF76DFA2C44B4
S214007F700746E5B2E4E7000008B50A4818F0ECFF4B
S214007F80094818F0E9FF094818F0E6FF084818F015
S214007F90E3FF084818F0E0FFBDE80840064818F080
S214007FA0DBBF00BFF0290020DC2A0020DE2A0020EC
S214007FB0EC290020F2290020F629002008B5DC2252
S214007FC00021044819F0C4FA034B1880034B012221
S214007FD01A7008BDFD290020F2290020F42900208F
S214007FE030B585B0FFF7EAFFFFF72AFB4FF07E6358
S214007FF0244DB3F85230244C4FF6FF72934208BF1C
S2140080004FF47A732B8000232380FFF733FAFFF7B1
S2140080103FFA0028FBD04FF07E634FF6FF72B3F8AE
S2140080204830934208BF4FF4C8632B800023238058
S214008030FFF7AEFC431E154D154C2870DBB20A2B1D
S21400804019D8012202FA03F340F20352134212D067
S2140080500222C123CDE9003202900E4984233D203E
S2140080600EF0ADF8FF232B70D023237005B0BDE8CB
S2140080703040FFF731BFFFF72FFFA023237005B076
S21400808030BD00BFC0290020C2290020E4290020FE
S214008090E52900209D51030037B504460D4619F02A
S2140080A05BF9022825D81C4840F21711FFF7E4FCBC
S2140080B01A4B197801F14003DBB2022B1FD901F0ED
S2140080C0A003A02B04D00B0619D57E20FFF7ACFE2C
S2140080D04FF07E63B3F8463013B12046FFF72CFF0F
S2140080E0B5B10F480022214603B0BDE8304019F074
S2140080F02CBB204619F030F9DC28D4D8D8E7CDE9D7
S21400810000148423074902223D200EF058F8DFE7CA
S21400811005482A462146E7E7A3510300D92A00204E
S214008120DC2A002004520300DE2A0020014601203B
S214008130FFF719BB2DE9F74FFFF7AAF9AB4C48B389
S2140081402378580626D599074CBFA94BA94BAA4AAF
S2140081501B7812789A4232D00120FFF7ADF97320CF
S214008160FFF7CCFEA54A13780133DBB213704FF04D
S2140081707E624FF6FF71B2F84E208A4208BF032295
S214008180934219DD9E4B512272201A70FFF7B6FEFD
S214008190202323709B4D9C4E94F900202378002AC0
S2140081A018DA13F030030ED01A20FFF7BFFF23783B
S2140081B003F07F032370EFE7FFF706FEEAE7934B33
S2140081C000221A80E6E72A78022AF0D18F4A2B701E
S2140081D01380E9E72A78012A00F0F8800DD9931E6B
S2140081E0012BD9D83178FF2900F02481002940F0EE
S2140081F0F580874B19783246EEE09A0719D57C4908
S2140082007D4A7C4892F800C007780A78ACEB0200FA
S214008210BA1A02F0070200F00700904298BF81F8F1
S21400822000C00A78BA4204D123F002032370FFF795
S2140082301BFE237813F0300F1FD013F0200F744F5F
S21400824015D0C2233B706E4B1B78BB7002237B702D
S214008250237823F03C03237001232B7003206C4B00
S21400826019783246FFF720F8FFF760FF94E7C1233E
S2140082703B70FFF78DFBB870E8E713F00C011FD0DA
S214008280644F13F0040F3978614B0FD06039C9B2D0
S21400829019708020FFF7C8FD237823F00C032370A5
S2140082A05D4B3A781A7001202870D8E781F080017B
S2140082B019707E20FFF7B8FD237823F00803EEE759
S2140082C09B0737D5DFF82881544A98F80030127893
S2140082D001919B1A03F0070AFDF75FFA0199DFF890
S2140082E040B181464E4819F02AFA0746BAF1000F07
S2140082F016D14846FDF757FA4A4B38461F8019F004
S2140083002BF8444B98F800201B7843EA0213404AA7
S21400831043F0080301301370C0B203232B709EE7AE
S2140083203946584619F05DFA0AF1FF3307465FFAF8
S21400833083FADBE7304B2F4F19783A78DFF8D48092
S2140083404FF07E634FF6FF70B3F84430834208BFA9
S21400835005230B44013B521A5B1A02F0070203F096
S21400836007039A4228DC304819F0E4F9E0B92E48B1
S21400837019F0E0F92C4A2D4B002808BF13462C4A6A
S21400838000211846136019F0DAF9264B188018F009
S214008390E3FF3A7898F8003043EA02131C4A0130AB
S2140083A01370C0B20223B9E7204819F0C3F918B910
S2140083B0FFF7D6F80028DAD1174B1A7898F800306D
S2140083C09A425DD0237843F00803F3E63378FF2B18
S2140083D04CD00F49C95C3246002043E7114B0139A7
S2140083E0C9B2188819F028FB014604E7E5290020E1
S2140083F0E7290020EA290020E2290020E6290020BB
S214008400E4290020FC290020EB290020C2290020B6
S214008410D92A0020E9290020E3290020E8290020A5
S214008420EC290020F6290020DC2A0020DE2A002085
S214008430F8290020022A1CD1134A1378013303F0CE
S21400844007031370114B0021186819F0E5F9104B5B
S21400845010481988002219F078F90F4B1B880BB9C1
S214008460FFF708F80D4B1A780D4B1A7000232B7087
S21400847092E60C4A1378013303F007031370ECE717
S21400848003B0BDE8F08F00BFEA290020F8290020DD
S214008490F6290020EC290020C2290020E929002026
S2140084A0E3290020E729002010B5014604460120F4
S2140084B0FFF744F928B126281DBF18232370002093
S2140084C0272010BD2DE9F04FDFF8FC9285B08246DC
S2140084D00023DFF8F882AAF8003098F800301BB9BD
S2140084E089F80030FFF78EFCA94DAA4E0DF10E005C
S2140084F0FFF7DAFF2728044616D09DF80E0099F8F5
S21400850000B04A460DF10F01FEF71CFF10F0DF0722
S21400851004461BD0FFF776FC7A2827D8732807D89E
S2140085202028DAD0272821D1204605B0BDE8F08FD4
S214008530A0F17404062C19D8DFE804F00418444AA5
S214008540184C4E007420FFF7D9FCC6E799F80030A7
S2140085509B4506D0022B0FD88F4B9DF80F2003F8B3
S2140085600B20202CC2D0002C00F0FD808B4840F25F
S2140085705511FFF781FAB0E7032B10D1884B1A7814
S2140085806AB12A881F7001213046328019F0F3F94B
S21400859001230093318883483A4619F007FA2B885E
S2140085A030889842DDD118F0D7FEC7B2791CC9B220
S2140085B0284619F0E0F99DF80F202888394619F06A
S2140085C04FFACEE77620FFF799FCFFF771FC84E7B9
S2140085D07720F8E77920F6E77A20F4E70A060DD444
S2140085E0032B2BD933785B0604D56F4B1B78B3EB84
S2140085F0111F01D0FFF706FC012519E001F0E0028B
S214008600802A06D1012B19D17D20FFF70DFC02250B
S2140086100CE0A02A06D1012B10D17F20FFF704FC26
S214008620032503E07B20FFF769FC0025FFF7EAFB44
S2140086303078430604D42023337049E77C20F2E7E1
S2140086406B1E022B16D85949DFF884B198F80070D3
S2140086500A789BF8003007F00707A7EB020C9B1A76
S2140086600CF0070C03F007039C4515D97820FFF79C
S21400867045FC0025AB1E012B2ED898F8003013F0D1
S214008680080326D0FEF752FF032D69D0002D7FF495
S2140086901FAFFFF70DFC1BE79742EBD0444A0F7065
S2140086A0002310F00200137008D0424A1380424B99
S2140086B01B78BB42DED0FEF7DDFEDBE7FEF7FCFEF6
S2140086C09BF80030BB4201D0FEF7D4FEFFF7CCFB90
S2140086D0D0E73A4A1370D7E7012DD5D1324998F83A
S2140086E000200B78C2F3021098422DD1294D28881D
S2140086F030B92620FFF7DCFB2624FFF7FFFB13E745
S214008700170742BF327842F00802327032780133DF
S21400871003F007030B7022F005024FF07E63327001
S214008720B3F846300BB1FFF707FC2B88019398F897
S214008730003000932249852302223D200DF03FFDA4
S2140087402B88AAF80030EFE61107337802D543F0FD
S214008750080371E7DA079CD47520FFF7CFFB98E78C
S214008760FFF732FBB4E6DFF8308099F8003098F86F
S2140087700010144EC0297FF431AF012B7FF45EAF9A
S214008780FFF760FB0425FFF75DFBFEF767FF4DE78D
S214008790F2290020F0290020EE290020A351030032
S2140087A0F4290020EF290020E9290020E2290020F2
S2140087B0E6290020C2290020E7290020C52900203C
S2140087C004520300E5290020F5290020C4290020D2
S2140087D0EA29002008B5114B1B781BB1002000F0D9
S2140087E0010008BD0E4B1A780E4B1B789A42F5D145
S2140087F012F0F0FB0028F1D10B4818F09BFF002880
S214008800ECD00A4818F096FF0028E7D0084B1B78F3
S214008810002BE3D10120FEF7B9FFE0E7C4290020D2
S214008820E3290020E9290020DE2A0020DC2A002097
S214008830FC29002000207047104430B5054602B9D8
S21400884030BD01F00F030A2B34BF302437242344F5
S214008850013A05F8013D0909D2B2F0E7F0B519B3BF
S214008860002820DA2D23B0F1004F137000D04042CC
S214008870012119E0801B8642ECB205F10105F9D909
S21400888014B9BCF1000F05D04D1C303454544FF0D1
S214008890010CE9B2013B13F0FF0309D1303050540C
S2140088A0481CC0B2F0BD0021034F09234FF0000C56
S2140088B057F8046B0025DEE70C5203002DE9F04F55
S2140088C0002495B021468046164603A8442202940A
S2140088D09B462CF09DF9A146274602AC25460DF195
S2140088E0480A317859B9641BE4B22246294600206A
S2140088F0C047002840F0AF803C44E0B2ACE02529F9
S2140089001AD0B9F1000F1BD1204600F8011B04460F
S2140089105445C0F0F580641BE4B229462246002088
S214008920C0470146002840F0968027444822284643
S214008930FFB22CF06DF9E2E0B9F1000F00D101367C
S2140089403278782A06D8612A07D8252A5DD039D801
S214008950002AC8D04FF00009DAE7A2F16201162912
S214008960F8D801A353F821F0178A0000A98A00005E
S214008970058B0000558900005589000055890000C8
S214008980558900005589000055890000558900006A
S214008990058B0000558900005589000055890000A8
S2140089A0BB8A00005589000055890000BB8A00007C
S2140089B055890000058B0000558900005589000088
S2140089C0FB890000392A16D82F2AC3D9717801F0FE
S2140089D0DF01582940F0C380322A06F1010940F031
S2140089E0AB805BF8041B2046042289B2FFF724FF05
S2140089F004464E46AEE7582AACD15BF8041B02226A
S214008A00C9B22046FFF718FF55E0214601F8022BB1
S214008A1062700C469EE7DBF800300193DBF804300A
S214008A2000934FF00009009B994502D10BF1080B0B
S214008A3090E7019B204613F809100222FFF7FCFE80
S214008A405045044612D3441BE4B229462246002071
S214008A50C047014618B1002015B0BDE8F08F482287
S214008A6028462CF0D5F82744FFB22C46009B5A1E09
S214008A704A4581BF2046202200F8012B0446544573
S214008A800FD3641BE4B2294622460020C0470146A5
S214008A900028E0D1482228462CF0BAF82744FFB236
S214008AA02C4609F10109BEE75B46204653F8042B25
S214008AB000F8012B9B4604464CE7621BD2B22946BF
S214008AC000205BF8049B0092C04704460028C2D1F1
S214008AD0009A0146174428464822FFB22CF098F820
S214008AE0E2B2013419F802000028F9D14946009292
S214008AF0C0470028AFD1009A1744FFB281462C46E3
S214008B000136EEE66C2ADBF800000BF104090ED104
S214008B107378752B14BF0121002101D0642B00D17E
S214008B2001362246FFF79AFECB46044412E7752A22
S214008B300CBF00210121F4E7342A10D15E4604223E
S214008B4056F804BB20464FEA1B41FFF775FE1FFA96
S214008B508BF10422FFF770FEB346044649E74FF058
S214008B600109D5E6034B1B78002B14BF0120022019
S214008B70704700BF102B00200329F8B598BF134B91
S214008B80054698BF5C5C0E4688BF0024032805D8BF
S214008B90DFE800F002080B0E44F002040C4B1F68DE
S214008BA04FB9F8BD44F00804F8E744F02004F5E7B0
S214008BB044F08004F2E77B681A68144203D05B68CE
S214008BC03146284698473F68EAE700BF3052030020
S214008BD00C2B002038B5104D2B78ABB10F4C2378FA
S214008BE01BB100F080FA00232370002000F07CFA0E
S214008BF00B4C50B100F07AFA002320782B7001213C
S214008C00FFF7BAFF0123237038BD064B01221A7006
S214008C10054B22781A70F7E70A2B0020052B002058
S214008C20FC2A0020092B0020182B002010B5FCF78A
S214008C30A5FD064B1B7804461BB1BDE81040FCF7AB
S214008C40A1BDFFF7C7FF2046F7E700BF042B0020B3
S214008C50094A0028137814BF0121FF210B44137022
S214008C6008D0064B1B78012B04D9054B1B780BB993
S214008C70FFF7B0BF704700BF102B0020FC2A002073
S214008C80092B002070B5124EFCF778FD33780546A8
S214008C908BB900F059FB044620B12846FCF772FD5C
S214008CA0204670BD0B48FBF75FFE0B4B1C6000F0C8
S214008CB065FC0A4B186000F0BDF900F055FA084B49
S214008CC018600123284633700024FCF75BFDE7E7B5
S214008CD0062B00200C2B00201C2B0020142B002021
S214008CE0002B00202DE9F341274A01380029135CA8
S214008CF014BF0121FF210B4413543AD0234E32787F
S214008D00012A36D9FFF72EFF0128044634D8204F13
S214008D10FCF734FD3B781BB31E4D2B781BB90122A4
S214008D202A701D4A1370DFF8748098F8003033B14B
S214008D30019000F0D8F90023019888F80030FCF77D
S214008D4021FD012000F0D0F9FCF718FD2B782BB19F
S214008D50019000F0CBF9002301982B7000233B70A4
S214008D60FCF710FD3078A04203D02146FFF704FF41
S214008D70347002B0BDE8F081032AF3D10228F1D1A5
S214008D8000F004FAEEE700BF102B0020FC2A0020BB
S214008D900A2B0020042B0020092B0020052B002086
S214008DA068B5FCF7EBFC094B1B78012B064604D88C
S214008DB0FCF7E8FC0025284668BD054B1D6800F05A
S214008DC0D7F905443046FCF7DDFCF4E7FC2A002022
S214008DD01C2B002007B5FCF7D1FC0190FFF7FAFE2C
S214008DE0019803B05DF804EBFCF7CCBC38B54160E5
S214008DF00446FCF7C3FC214605460448FBF7B7FDCE
S214008E002846BDE83840FCF7BDBC00BF0C2B002050
S214008E10054B1B68584300F57420044B00F23F20B6
S214008E20B0FBF3F0704700BF142B002040420F0049
S214008E302DE9F04385B0FCF7A1FC0446AFF30080B3
S214008E40FBF79CFB002800F08A80654E654F337860
S214008E5023B10020FFF7FCFE00233370FFF782FEED
S214008E600546002800F08380851EEDB2012D40F2F5
S214008E708680FFF777FE0128804604D95A4B1B7878
S214008E800BB900F00FF9594DDFF88091287840456E
S214008E9007D099F8003013B94146FFF76DFE85F804
S214008EA00080B8F1010F0FD9DFF83C8198F8003048
S214008EB053B94F4B1B7823B900F014F94D4B0122E0
S214008EC01A70012388F80030287800F037F999F8EE
S214008ED0003013B1484B1B782B70AFF30080204650
S214008EE0FCF750FCFCF74AFC444B1A78044652B197
S214008EF000221A70404B28781B78984203D1012133
S214008F002970FFF739FE384600F058FAFBF74BFB9E
S214008F10804600289BD1344F3B789BB189F80000EF
S214008F20DFF8D09099F800301BB100F0DCF889F833
S214008F300080002000F0D8F8002846D000F0D6F8D0
S214008F4000233B70337823B10020FFF781FE002317
S214008F50337028780021FFF70FFE00232B70AFF345
S214008F600080204605B0BDE8F043FCF70BBC337824
S214008F70002B3FF47EAFFFF76BFE357079E703A951
S214008F80002000F09DFA054600287FF472AF1C4BC7
S214008F90039A1B689A4205D80120FFF759FE012361
S214008FA0337066E7174BD3F8008000F0E1F80399BA
S214008FB040448842F0D20223CDE90053091A124AEF
S214008FC02B46384600F022FA53E7012000F0B6F8A8
S214008FD02046FCF7D7FBFCF7D1FB0446A9E700BF09
S214008FE0132B0020E02A00200A2B0020FC2A002059
S214008FF0122B0020052B0020182B0020082B002009
S214009000002B00201C2B00202D8C0000092B00209C
S21400901010B5FCF7B3FB054B00221C781A70FCF762
S214009020B1FB00F0B5FB2043C0B210BD072B0020FB
S2140090307047000008B5154B5A6A5A6AD3F8903044
S21400904003F00403002B124B14BF012200221A70F7
S21400905005D04FF41670FFF7DBFE0E4B18600E4B74
S2140090601B680120C3F303239840C0F1010000EB06
S21400907080006430FFF7CCFE084A13681844034BA0
S2140090801060D3F89020064B1A6008BD00400E40D2
S2140090902D2B0020282B002000200440302B002001
S2140090A0202B0020FCF756BD08B50B4B1B7893B160
S2140090B0022000F01FFC70B100F034FA58B1002214
S2140090C001210220FCF7F6F900F032FA034B186093
S2140090D0034B01221A7008BD2D2B0020242B0020E4
S2140090E02C2B0020704770470120704738B50E4C77
S2140090F00E4D23782BB92B781BB100F019FA0C4BC8
S2140091001860FCF729FD2B786BB10A4AD2F890302C
S2140091101B07FBD500F00CFA054B1B68C01A064B64
S21400912018600023237038BD2C2B00202D2B002028
S214009130242B002000400E40282B002002280AD0B6
S21400914003280BD001280CD1064A136923F0040328
S214009150136130BF70470020FCF796BC0020FCF778
S214009160BFBC704700ED00E04FF41670FFF750BE2E
S214009170044B1B680BB103EBD303034A1068184477
S214009180704700BF282B0020302B0020084B45F6E8
S2140091900E02D3F88011C3F88021064A126802F442
S2140091A0A0721A66CA0744BF0022C3F8802170471F
S2140091B000400E40202B002010B500F039FB0A4C72
S2140091C00A4B19682368C31A01B10BB9206010BD99
S2140091D04A699A422EBFD21A9B1A00224A6128BFB9
S2140091E000238968F0E700BF382B00204C2B0020B6
S2140091F0C38870B504460D463BB9FFF7D1FD8542DE
S214009200064602D2FFF7E6FD35460F4965610B6854
S214009210ABB90C60A36011E0AD1A9A686561184698
S2140092202AB113465A69AA42F6D950B11A46846042
S2140092301346A36013B15969491B596170BD0020DC
S214009240F0E70C60F5E700BF4C2B002038B5134D57
S2140092502B685B6993B1124A146802201C4400F024
S2140092601BFB204600F0EAFA0E492A6800230B7022
S214009270D088800709D501230B7038BD022000F086
S2140092800BFB022000F02EFBEEE79268002AF4D0DB
S21400929050690344012BEBD9EFE700BF4C2B0020AD
S2140092A0382B0020402B002070B516469DF8142061
S2140092B00271049A0260C0E903360022BDF8183035
S2140092C08260C38004460D4600F0B2FA3044A061C6
S2140092D03DB9E368656113B121682046984796B1A9
S2140092E03546FCF74BFA0646FFF766FF294620464A
S2140092F0FFF77EFF054B1B68A34201D1FFF7A6FFD1
S2140093003046FCF73FFA002070BD00BF4C2B002013
S2140093100C490B6800227BB183420AD183687AB17C
S214009320936083681BB15A6941690A445A610020F8
S21400933070471A469B68EEE70028EFD00220704779
S2140093400B60EEE74C2B002070B5154EFCF725FAA7
S21400935034780546FCB9134B1C60134B1C60134B4A
S2140093601C8000F021FA012000F096FA00F0EAFADC
S2140093700F4B0246186020B92846FCF714FA232043
S21400938070BD23460B4840F2E7312BF03FFA0A4BFC
S2140093901860012333702846FCF705FA0020EFE733
S2140093A0342B00204C2B0020382B0020422B002092
S2140093B0482B002018FCFFFF3C2B00202DE9F04135
S2140093C00546F8B1FCF7DAF90F4F0646FFF7F4FE4C
S2140093D02846D7F80080FFF79BFF044628B13046A2
S2140093E0FCF7D0F92046BDE8F081A8453B6803D1DC
S2140093F023B1FFF72BFFF2E7002BF0D1022000F09D
S21400940059FAECE72224EDE74C2B002070B586B025
S214009410154605911E46044680B1FFF7CFFFBDF8FE
S2140094202C3002939DF828300599CDE90063002280
S2140094302B462046FFF738FF06B070BD2220FBE71C
S21400944038B50C46054698B191B100230B70FCF771
S214009450A4F9084B1B6801210BB122781AB1FCF75E
S214009460A2F9002038BDAB4214BF9B682170F3E719
S2140094702220F7E74C2B0020F0B587B01F460023CC
S2140094800D4616468DF817300446A0B10DF11701AB
S214009490FFF7D6FF9DF817207AB9BDF8343002934F
S2140094A09DF830302946CDE9007320463346FFF755
S2140094B0FBFE07B0F0BD2220FBE70320F9E7000023
S2140094C02DE9F04107468846FCF767F9134B1C6800
S2140094D00546002624B92846FCF765F91B2016E049
S2140094E063691E44E388BB4215D10D4C00F0A0F919
S2140094F02368C01AB0420CD200F09AF922683244AF
S214009500121A2846C8F80020FCF74DF90020BDE8DE
S214009510F0810022F5E7A468DCE700BF4C2B0020B2
S214009520382B0020014B1878704700BF402B0020D6
S21400953038B5FCF732F9054600F07AF904462846B5
S214009540FCF731F9204638BD70B5FCF726F906461B
S21400955000F06EF9084B1D8804460120ADB200F0FD
S214009560C9F918B100F064F9013504463046FCF735
S2140095701AF92046294670BD422B0020014B186878
S214009580704700BF482B00200C4B1B68834270B509
S2140095900D4611D30A4B40F2E7311E6800248C4674
S2140095A02146E0FB06C14FF47A72002360462BF09A
S2140095B02DF92860204670BD2120FCE73C2B0020BA
S2140095C0482B0020014B1868704700BF3C2B00203A
S2140095D00F4B1A6810B59AB1531E4FF47A711342A6
S2140095E0A0FB01010ED1B2FA82F2C2F11F04531C95
S2140095F0E040D24301FA03F3184321FA02F2024391
S214009600104610BD00232BF001F90246F8E700BF14
S214009610482B0020164B8342164B8B4170B51546DF
S21400962024D3154B1A680AB34FF47A76541EA0FB5F
S2140096300603144006FB013111D1B2FA82F3C3F1DE
S2140096401F025E1C01FA06F6DB43D04021FA03F344
S21400965030431843D140C5E90001204670BD0023C1
S2140096602BF0D4F80024C5E90001F6E72124F4E73E
S214009670EFA7C64B37894100482B0020C2072DE9CB
S214009680F34704460BD53F4A138801339BB2138039
S214009690FFF792FD3C4B1B680BB1FFF7D7FDA30706
S2140096A06DD5FCF77AF80546FFF786FD0026DFF84D
S2140096B0D8803746B146D8F800400CB163698BB104
S2140096C0324B0022012F1A7002D1022E08BF1F70E3
S2140096D0002C44D0FFF7BAFD284602B0BDE8F0479C
S2140096E0FCF761B823461A792179914288BF1C4657
S2140096F09B6813B15A69002AF5D02846FCF753F840
S214009700256985B300F094F8A269861AF317B54266
S21400971079EB030328DA23691344A3610123226942
S21400972082B17BB9A91B0191FCF737F801998246F3
S2140097302046FFF75DFDA36922691344A3615046E6
S214009740FCF731F8E368E688013713B12168204654
S2140097509847FCF722F80546FFF72EFDABE70220F8
S21400976000F0A8F8B8E72E46FCF717F88246204621
S214009770FFF7CEFD5046FCF716F80023CFE702B001
S214009780BDE8F087422B00204C2B0020442B002005
S21400979010B5FCF702F8034B1C78FCF704F82046DB
S2140097A010BD00BF442B002010B51D4B86B01868B6
S2140097B0596803AA03C2197AD3F8090011700190F8
S2140097C0B3F80D201748DB7BADF8082001218DF893
S2140097D00A300024FBF700FC03A88DF80C408DF837
S2140097E01040FCF7FFFD01A901208DF80440FCF7AE
S2140097F0D9FD0D4A536A23F4FF6323F0070353622F
S21400980040F2FF73136201209460FCF7E5FD074BFE
S2140098104FF00052C3F880211A6006B010BD00BF9A
S21400982034520300A00914000020044000E100E0C8
S214009830014B9868704700BF0020044010B50446EE
S214009840FBF79CFF124A9368516D9269520704D445
S214009850CA1A032A01D899420DD1E21A022A98BFE1
S214009860DC1C0B4BB4F1FF3F38BF013C5C655A6A09
S21400987042F004025A62FBF785FF064A137833B1BA
S21400988003490B6D43F002030B650023137010BDF4
S214009890002004402C1100208207054A00F0010336
S2140098A0516A48BF43F004030B435362704700BF3E
S2140098B000200440820700F0010309D5074A012171
S2140098C0117007490A6D22F0030243F004030A658B
